S02B0000433A5C55736572735C736D65695C446F63756D656E74735C52746F73323031375C52746F73446973DF
S31508000000002800206D5B0008BF5B0008CB5B00087A
S31508000010D15B0008D75B0008DD5B00080000000024
S31508000020000000000000000000000000E1060008D3
S31508000030E35B00080000000091080008D9080008E2
S31508000040BD5B0008BD5B0008BD5B0008BD5B000822
S31508000050BD5B0008BD5B0008BD5B0008BD5B000812
S31508000060BD5B0008BD5B0008BD5B0008BD5B000802
S31508000070BD5B0008BD5B0008BD5B0008BD5B0008F2
S31508000080BD5B0008BD5B0008BD5B0008BD5B0008E2
S31508000090BD5B0008BD5B0008BD5B0008BD5B0008D2
S315080000A0BD5B0008BD5B0008BD5B0008BD5B0008C2
S315080000B0BD5B0008BD5B0008BD5B0008BD5B0008B2
S315080000C0BD5B0008BD5B0008BD5B0008BD5B0008A2
S315080000D0BD5B00088D340008BD5B0008BD5B0008E9
S315080000E0BD5B0008BD5B0008BD5B0008BD5B000882
S315080000F0BD5B0008000000000000000000000000D2
S3110800010000000000000000005FF808F195
S3150800011010B5054C237833B9044B13B10448AFF333
S3150800012000800123237010BD340000200000000069
S315080001300060000808B5034B1BB103490348AFF339
S31508000140008008BD0000000038000020006000089C
S3150800015080B582B000AF182000F02CFC78607B6870
S31508000160002B07D07B6800221A607B680433184688
S3150800017000F0BBF97B6818460837BD4680BD00000D
S3150800018080B590B000AFF860B9607A603B60FB68F4
S315080001907B630023BB6300233B63FB68002B09D109
S315080001A04FF0500383F31188BFF36F8FBFF34F8F60
S315080001B03B62FEE7BB6803F07F43002B09D04FF094
S315080001C0500383F31188BFF36F8FBFF34F8FFB6123
S315080001D0FEE7BB68002B09D14FF0500383F3118863
S315080001E0BFF36F8FBFF34F8FBB61FEE701F0C8FF08
S315080001F00346002B02D1BB6C002B01D1012300E082
S315080002000023002B09D14FF0500383F31188BFF365
S315080002106F8FBFF34F8F7B61FEE701F017FB7B6B98
S315080002201B68FB623A68B968F86A00F03DF9B8627B
S31508000230BB6A002B0ED0FB6AFB630023BB647B689A
S31508000240002B26D07B6B1A68BB68DB431A407B6B96
S315080002501A601EE0BB6C002B02D1FB6AFB6318E038
S315080002607B68002B03D0BB6B43F08073BB633B6892
S31508000270002B03D0BB6B43F08063BB637B6B181DFD
S31508000280BA68BB6B1343BA6C194601F0F7FC002336
S31508000290FB6301F0E9FA7862BB6C002B31D07B6A0C
S315080002A0002B07D1194B4FF080521A60BFF34F8FBE
S315080002B0BFF36F8F02F07CF8F863FB6B03F00073F3
S315080002C0002B1AD100F08EFA7B6B1B68FB633A6829
S315080002D0B968F86B00F0E8F80346002B09D07B688C
S315080002E0002B06D07B6B1A68BB68DB431A407B6B16
S315080002F01A6000F0A5FA00233B63FB6B23F07F43EB
S31508000300FB63FB6B18464037BD4680BD04ED00E035
S3150800031080B586B000AF786039607B687B617B68A2
S31508000320002B09D14FF0500383F31188BFF36F8F69
S31508000330BFF34F8FFB60FEE73B6803F07F43002B5C
S3150800034009D04FF0500383F31188BFF36F8FBFF3C3
S315080003504F8FBB60FEE700F045FA7B691B683B617F
S315080003607B691A683B68DB431A407B691A6000F0B0
S3150800037067FA3B6918461837BD4680BD80B58EB00A
S3150800038000AF7860396000233B637B68BB6200235B
S31508000390FB627B68002B09D14FF0500383F3118869
S315080003A0BFF36F8FBFF34F8F3B61FEE73B6803F0E8
S315080003B07F43002B09D04FF0500383F31188BFF316
S315080003C06F8FBFF34F8FFB60FEE7BB6A04337B6218
S315080003D07B6A08333B6201F039FA7B6ADB687B6328
S315080003E0BB6A1A683B681A43BB6A1A603CE07B6BB7
S315080003F05B68FB617B6B1B68BB610023FB62BB69A7
S3150800040003F07F437B61BB6923F07F43BB617B6954
S3150800041003F08063002B08D1BB6A1A68BB691340D6
S31508000420002B0BD00123FB6208E0BB6A1A68BB6984
S315080004301A40BB699A4201D10123FB62FB6A002B71
S3150800044010D07B6903F08073002B03D03A6BBB692D
S3150800045013433B63BB6A1B6843F000731946786B0A
S3150800046001F0D2FCFB697B637A6B3B6A9A42BED188
S31508000470BB6A1A683B6BDB431A40BB6A1A6001F019
S31508000480F3F9BB6A1B6818463837BD4680BD80B588
S3150800049082B000AF7860396039687868FFF76EFF18
S315080004A000BF0837BD4680BD80B487B000AFF8608E
S315080004B0B9607A6000237B617B68002B07D1FA68F4
S315080004C0BB681340002B0AD001237B6107E0FA685A
S315080004D0BB681A40BB689A4201D101237B617B69DC
S315080004E018461C37BD4680BC704780B483B000AF41
S315080004F078607B6803F108027B685A607B684FF076
S31508000500FF329A607B6803F108027B68DA607B68D1
S3150800051003F108027B681A617B6800221A6000BF33
S315080005200C37BD4680BC704780B483B000AF786096
S315080005307B6800221A6100BF0C37BD4680BC704735
S3150800054080B485B000AF786039607B685B68FB6013
S315080005503B68FA685A60FB689A683B689A60FB6869
S315080005609B683A685A60FB683A689A603B687A689A
S315080005701A617B681B685A1C7B681A6000BF1437AF
S31508000580BD4680BC704780B485B000AF78603960DE
S315080005903B681B68BB60BB68B3F1FF3F03D17B6850
S315080005A01B69FB600CE07B680833FB6002E0FB68B4
S315080005B05B68FB60FB685B681A68BB689A42F6D999
S315080005C0FB685A683B685A603B685B683A689A6099
S315080005D03B68FA689A60FB683A685A603B687A68CA
S315080005E01A617B681B685A1C7B681A6000BF14373F
S315080005F0BD4680BC704780B485B000AF78607B6824
S315080006001B69FB607B685B687A6892689A607B689E
S315080006109B687A6852685A60FB685A687B689A428F
S3150800062003D17B689A68FB685A607B6800221A6166
S31508000630FB681B685A1EFB681A60FB681B6818462D
S315080006401437BD4680BC704780B485B000AFF860EB
S31508000650B9607A60FB68043BFB60FB684FF0807208
S315080006601A60FB68043BFB60BB6823F00102FB6869
S315080006701A60FB68043BFB60084AFB681A60FB6863
S31508000680143BFB607A68FB681A60FB68203BFB60DA
S31508000690FB6818461437BD4680BC7047A10600089B
S315080006A080B483B000AF0C4B1B68B3F1FF3F09D091
S315080006B04FF0500383F31188BFF36F8FBFF34F8F4B
S315080006C07B60FEE74FF0500383F31188BFF36F8F0B
S315080006D0BFF34F8F3B60FEE70000002000000000DC
S315080006E0074B19680868B0E8F00F80F30988BFF36C
S315080006F06F8F4FF0000080F311884EF00D0E704793
S31508000700600C002000BF00BF06480068006880F340
S31508000710088862B661B6BFF34F8FBFF36F8F00DFED
S3150800072000BF00BF08ED00E080B584B000AF284BDD
S31508000730FB60FB681B78DBB2BB60FB68FF221A70A4
S31508000740FB681B78DBB2FB71FB79DBB203F0500365
S31508000750DAB2204B1A70204B07221A6009E01E4BAA
S315080007601B68013B1C4A1360FB79DBB25B00DBB2FA
S31508000770FB71FB79DBB203F08003802BEFD0164BBD
S315080007801B681B02144A1360134B1B6803F4E063CF
S31508000790114A1360BB68DAB2FB681A700F4A0F4B2E
S315080007A01B6843F4700313600C4A0C4B1B6843F038
S315080007B07043136000F0B0F8094B00221A60FFF787
S315080007C0A3FFFFF76DFF002318461037BD4680BD0F
S315080007D000E400E0500000205400002020ED00E076
S315080007E00000002080B483B000AF4FF0500383F3BD
S315080007F01188BFF36F8FBFF34F8F7B600E4B1B685B
S3150800080001330D4A13600C4B1B68012B0ED10B4BA1
S315080008101B68DBB2002B09D04FF0500383F3118815
S31508000820BFF36F8FBFF34F8F3B60FEE700BF0C37F8
S31508000830BD4680BC704700BF0000002004ED00E004
S3150800084080B483B000AF104B1B68002B09D14FF062
S31508000850500383F31188BFF36F8FBFF34F8F7B600D
S31508000860FEE7094B1B68013B074A1360064B1B68EA
S31508000870002B04D100233B603B6883F3118800BF3B
S315080008800C37BD4680BC7047000000200000000001
S31508000890EFF30980BFF36F8F0D4B1A6820E9F00F4D
S315080008A010602DE908404FF0500080F3118801F0E0
S315080008B041F94FF0000080F31188BDE80840196837
S315080008C00868B0E8F00F80F30988BFF36F8F7047A8
S315080008D0600C002000BF00BF80B582B000AF4FF0AB
S315080008E0500383F31188BFF36F8FBFF34F8F7B607D
S315080008F001F064F80346002B03D0064B4FF08052F4
S315080009001A6000233B603B6883F3118800BF0837F1
S31508000910BD4680BD04ED00E080B400AF054B47F648
S31508000920FF421A60044B07221A6000BFBD4680BC0E
S31508000930704700BF14E000E010E000E080B485B026
S3150800094000AFEFF30583FB60FB680F2B13D9154A3D
S31508000950FB6813441B78FB72134B1B78FA7A9A428E
S3150800096009D24FF0500383F31188BFF36F8FBFF39B
S315080009704F8F7B60FEE70D4B1B6803F4E0620C4B60
S315080009801B689A4209D94FF0500383F31188BFF3C5
S315080009906F8FBFF34F8F3B60FEE700BF1437BD462E
S315080009A080BC7047F0E300E0500000200CED00E04A
S315080009B05400002080B584B000AF78600023FB6047
S315080009C07B6803F00703002B04D07B6823F007033A
S315080009D008337B6000F03AFF184B1B68002B05D1E3
S315080009E0174B23F007031A46144B1A60154B1A685F
S315080009F07B68134440F6F732934213D8114B1A68B2
S31508000A007B681A440F4B1B689A420BD90B4B1A6822
S31508000A100C4B1B681344FB600A4B1A687B6813442B
S31508000A20084A136000F020FFFB68002B01D105F08F
S31508000A3087F8FB6818461037BD4680BD5C0C002059
S31508000A4060000020580C002080B485B000AF7860A4
S31508000A507B68002B09D04FF0500383F31188BFF34E
S31508000A606F8FBFF34F8FFB60FEE700BF1437BD469D
S31508000A7080BC704780B400AF044B1B68C3F53F6366
S31508000A8008331846BD4680BC704700BF580C002086
S31508000A9080B584B000AF786039607B68FB60FB681E
S31508000AA0002B09D14FF0500383F31188BFF36F8FE2
S31508000AB0BFF34F8FBB60FEE7FFF794FEFB681A682B
S31508000AC0FB68DB6BF968096C01FB03F31A44FB68E6
S31508000AD05A60FB6800229A63FB681A68FB689A608A
S31508000AE0FB681A68FB68DB6B013BF968096C01FB5C
S31508000AF003F31A44FB68DA60FB68FF2283F8442094
S31508000B00FB68FF2283F845203B68002B14D1FB685D
S31508000B101B69002B1AD0FB681033184601F012F92E
S31508000B200346002B12D00D4B4FF080521A60BFF3CC
S31508000B304F8FBFF36F8F09E0FB6810331846FFF736
S31508000B40D4FCFB6824331846FFF7CFFCFFF778FE82
S31508000B50012318461037BD4680BD00BF04ED00E0EE
S31508000B6080B58AB002AFF860B9601346FB71FB68BE
S31508000B70002B09D14FF0500383F31188BFF36F8F11
S31508000B80BFF34F8F3B61FEE7BB68002B02D1002302
S31508000B90FB6104E0FB68BA6802FB03F3FB61FB69CF
S31508000BA048331846FFF706FFB861BB69002B0BD020
S31508000BB0BB6948337B61FA79BB69009313467A6946
S31508000BC0B968F86800F005F8BB6918462037BD46CD
S31508000BD080BD80B584B000AFF860B9607A60FB70FC
S31508000BE0BB68002B03D1BB69BA691A6002E0BB690E
S31508000BF07A681A60BB69FA68DA63BB69BA681A6404
S31508000C000121B869FFF744FF00BF1037BD4680BD14
S31508000C1080B58EB000AFF860B9607A603B6000239B
S31508000C207B63FB683B633B6B002B09D14FF050039A
S31508000C3083F31188BFF36F8FBFF34F8FBB62FEE755
S31508000C40BB68002B03D13B6B1B6C002B01D1012326
S31508000C5000E00023002B09D14FF0500383F31188DD
S31508000C60BFF36F8FBFF34F8F7B62FEE73B68022BA4
S31508000C7003D13B6BDB6B012B01D1012300E0002381
S31508000C80002B09D14FF0500383F31188BFF36F8F00
S31508000C90BFF34F8F3B62FEE701F072FA0346002B63
S31508000CA002D17B68002B01D1012300E00023002B31
S31508000CB009D14FF0500383F31188BFF36F8FBFF349
S31508000CC04F8FFB61FEE7FFF78DFD3B6B9A6B3B6B26
S31508000CD0DB6B9A4202D33B68022B29D13A68B96882
S31508000CE0386B00F035FAF8623B6B5B6A002B10D064
S31508000CF03B6B2433184601F025F80346002B13D026
S31508000D003F4B4FF080521A60BFF34F8FBFF36F8F80
S31508000D100AE0FB6A002B07D0394B4FF080521A6065
S31508000D20BFF34F8FBFF36F8FFFF78AFD012363E091
S31508000D307B68002B03D1FFF783FD00235CE07B6B08
S31508000D40002B06D107F11403184601F0C3F8012356
S31508000D507B63FFF775FD00F079FDFFF743FD3B6BFD
S31508000D6093F844305BB2B3F1FF3F03D13B6B0022EB
S31508000D7083F844203B6B93F845305BB2B3F1FF3FF1
S31508000D8003D13B6B002283F84520FFF759FD3A1D36
S31508000D9007F114031146184601F0BEF80346002B66
S31508000DA024D1386B00F0CCFA0346002B18D03B6BE5
S31508000DB010337A681146184600F03CFF386B00F08D
S31508000DC057FA00F051FD0346002B7FF47CAF0C4B1D
S31508000DD04FF080521A60BFF34F8FBFF36F8F72E7E1
S31508000DE0386B00F045FA00F03FFD6CE7386B00F011
S31508000DF03FFA00F039FD002318463837BD4680BD56
S31508000E0004ED00E080B58EB000AFF860B9607A6096
S31508000E103B60FB683B633B6B002B09D14FF05003EB
S31508000E2083F31188BFF36F8FBFF34F8F7B62FEE7A3
S31508000E30BB68002B03D13B6B1B6C002B01D1012334
S31508000E4000E00023002B09D14FF0500383F31188EB
S31508000E50BFF36F8FBFF34F8F3B62FEE73B68022BF2
S31508000E6003D13B6BDB6B012B01D1012300E000238F
S31508000E70002B09D14FF0500383F31188BFF36F8F0E
S31508000E80BFF34F8FFB61FEE7FFF758FDEFF31182C3
S31508000E904FF0500383F31188BFF36F8FBFF34F8F63
S31508000EA0BA617B61BB69FB623B6B9A6B3B6BDB6B25
S31508000EB09A4202D33B68022B2CD13B6B93F8453000
S31508000EC087F82B303A68B968386B00F041F997F91A
S31508000ED02B30B3F1FF3F12D13B6B5B6A002B16D068
S31508000EE03B6B2433184600F02DFF0346002B0ED02B
S31508000EF07B68002B0BD07B6801221A6007E097F805
S31508000F002B300133DBB25AB23B6B83F84520012301
S31508000F107B6301E000237B63FB6A3B613B6983F3E8
S31508000F2011887B6B18463837BD4680BD80B58EB0B4
S31508000F3000AFF860B9607A603B6000237B63FB68AA
S31508000F403B633B6B002B09D14FF0500383F31188A9
S31508000F50BFF36F8FBFF34F8F7B62FEE7BB68002B33
S31508000F6003D13B6B1B6C002B01D1012300E000234E
S31508000F70002B09D14FF0500383F31188BFF36F8F0D
S31508000F80BFF34F8F3B62FEE701F0FAF80346002BEA
S31508000F9002D17B68002B01D1012300E00023002B3E
S31508000FA009D14FF0500383F31188BFF36F8FBFF356
S31508000FB04F8FFB61FEE7FFF715FC3B6B9B6BFB62F4
S31508000FC0FB6A002B46D03B6BDB68BB62B968386BA3
S31508000FD000F028F93B68002B21D1FB6A5A1E3B6BAF
S31508000FE09A633B6B1B68002B04D101F0F9F90246A2
S31508000FF03B6B5A603B6B1B69002B27D03B6B10334E
S31508001000184600F09FFE0346002B1FD04F4B4FF0AB
S3150800101080521A60BFF34F8FBFF36F8F16E03B6B9A
S31508001020BA6ADA603B6B5B6A002B0FD03B6B2433E2
S31508001030184600F087FE0346002B07D0434B4FF0B7
S3150800104080521A60BFF34F8FBFF36F8FFFF7F8FB1D
S31508001050012377E07B68002B03D1FFF7F1FB002320
S3150800106070E07B6B002B06D107F11403184600F0DD
S3150800107031FF01237B63FFF7E3FB00F0E7FBFFF794
S31508001080B1FB3B6B93F844305BB2B3F1FF3F03D13E
S315080010903B6B002283F844203B6B93F845305BB2E8
S315080010A0B3F1FF3F03D13B6B002283F84520FFF7DE
S315080010B0C7FB3A1D07F114031146184600F02CFF2A
S315080010C00346002B31D1386B00F024F90346002B78
S315080010D025D03B6B1B68002B08D1FFF783FB3B6BC6
S315080010E05B68184601F06AF8FFF7AAFB3B6B2433E6
S315080010F07A681146184600F09DFD386B00F0B8F87E
S3150800110000F0B2FB0346002B7FF455AF0F4B4FF0B0
S3150800111080521A60BFF34F8FBFF36F8F4BE7386B60
S3150800112000F0A6F800F0A0FB45E7386B00F0A0F841
S3150800113000F09AFB386B00F0EDF80346002B3FF4FD
S315080011403AAF002318463837BD4680BD04ED00E0A7
S3150800115080B586B000AFF860B9607A6000237B611D
S31508001160FB689B6B3B61FB681B6C002B0DD1FB6816
S315080011701B68002B4DD1FB685B68184601F094F894
S315080011807861FB6800225A6043E07B68002B19D11E
S31508001190FB689868FB681B6C1A46B96804F01CFF64
S315080011A0FB689A68FB681B6C1A44FB689A60FB68C4
S315080011B09A68FB685B689A422BD3FB681A68FB68D7
S315080011C09A6026E0FB68D868FB681B6C1A46B96803
S315080011D004F002FFFB68DA68FB681B6C5B421A4482
S315080011E0FB68DA60FB68DA68FB681B689A4207D214
S315080011F0FB685A68FB681B6C5B421A44FB68DA603A
S315080012007B68022B05D13B69002B02D03B69013B69
S315080012103B613B695A1CFB689A637B691846183719
S31508001220BD4680BD80B582B000AF786039607B6806
S315080012301B6C002B18D07B68DA687B681B6C1A4419
S315080012407B68DA607B68DA687B685B689A4203D3F6
S315080012507B681A687B68DA607B68D9687B681B6C70
S315080012601A46386804F0B8FE00BF0837BD4680BD88
S3150800127080B584B000AF7860FFF7B4FA7B6893F85E
S315080012804530FB7311E07B685B6A002B12D07B68E4
S315080012902433184600F056FD0346002B01D000F013
S315080012A099FEFB7B013BDBB2FB7397F90F30002BF2
S315080012B0E9DC00E000BF7B68FF2283F84520FFF7E2
S315080012C0BFFAFFF78FFA7B6893F84430BB7311E0D7
S315080012D07B681B69002B12D07B681033184600F018
S315080012E031FD0346002B01D000F074FEBB7B013BA9
S315080012F0DBB2BB7397F90E30002BE9DC00E000BFC8
S315080013007B68FF2283F84420FFF79AFA00BF10375C
S31508001310BD4680BD80B584B000AF7860FFF762FA3D
S315080013207B689B6B002B02D10123FB6001E0002345
S31508001330FB60FFF785FAFB6818461037BD4680BD87
S3150800134080B584B000AF7860FFF74CFA7B689A6B7B
S315080013507B68DB6B9A4202D10123FB6001E0002324
S31508001360FB60FFF76DFAFB6818461037BD4680BD6F
S3150800137080B586B000AFF860B9607A60FB687B61BB
S31508001380FFF730FA7B6993F844305BB2B3F1FF3F5D
S3150800139003D17B69002283F844207B6993F84530A2
S315080013A05BB2B3F1FF3F03D17B69002283F8452086
S315080013B0FFF746FA7B699B6B002B06D17B692433C2
S315080013C07A68B968184600F093FC7869FFF750FF09
S315080013D000BF1837BD4680BD80B58CB004AFF86035
S315080013E0B9603B601346FB80FB889B001846FFF7F5
S315080013F0E1FA78617B69002B0ED05420FFF7DAFA00
S31508001400F861FB69002B03D0FB697A691A6305E06A
S315080014107869FFF719FB01E00023FB61FB69002BE4
S3150800142013D0FA8800230393FB690293FB6A01939E
S31508001430BB6A00933B68B968F86800F00EF8F8696B
S3150800144000F092F80123BB6102E04FF0FF33BB6165
S31508001450BB6918462037BD4680BD80B588B000AF49
S31508001460F860B9607A603B603B6B186B7B689B00E1
S315080014701A46A52104F0BBFD3B6B1A6B7B6803F18A
S315080014808043013B9B001344BB61BB6923F0070300
S31508001490BB61BB6903F00703002B09D04FF050036B
S315080014A083F31188BFF36F8FBFF34F8F7B61FEE71E
S315080014B00023FB6112E0BA68FB69134419783A6B9A
S315080014C0FB69134434330A461A70BA68FB69134435
S315080014D01B78002B06D0FB690133FB61FB690F2BD8
S315080014E0E9D900E000BF3B6B002283F84320BB6AC2
S315080014F0042B01D90423BB623B6BBA6ADA623B6BE5
S31508001500BA6A5A643B6B00229A643B6B04331846EA
S31508001510FFF70AF83B6B18331846FFF705F83B6BDD
S315080015203A6B1A61BB6AC3F105023B6B9A613B6B66
S315080015303A6B5A623B6B0022DA643B6B002283F8F3
S3150800154050203A68F968B869FFF77EF802463B6B9F
S315080015501A60FB6A002B02D0FB6A3A6B1A6000BF5E
S315080015602037BD4680BD000080B582B000AF7860E8
S31508001570FFF738F92A4B1B680133294A1360294BB0
S315080015801B68002B09D1274A7B681360244B1B680C
S31508001590012B10D100F044FD0DE0234B1B68002BF6
S315080015A009D1204B1B68DA6A7B68DB6A9A4202D843
S315080015B01C4A7B6813601D4B1B6801331B4A13606A
S315080015C07B68DB6A01229A40194B1B681343184A49
S315080015D013607B68DA6A13469B0013449B00154A1E
S315080015E01A447B68043319461046FEF7A9FFFFF72D
S315080015F027F90D4B1B68002B0ED00A4B1B68DA6ABD
S315080016007B68DB6A9A4207D20B4B4FF080521A600E
S31508001610BFF34F8FBFF36F8F00BF0837BD4680BD3E
S31508001620380D0020600C0020440D0020540D0020C9
S31508001630400D0020640C002004ED00E080B584B065
S3150800164000AF78600023FB607B68002B16D0134B35
S315080016501B68002B09D04FF0500383F31188BFF3A2
S315080016606F8FBFF34F8FBB60FEE700F0EFF80021E6
S31508001670786800F0C9FE00F0F7F8F860FB68002B00
S3150800168007D1074B4FF080521A60BFF34F8FBFF355
S315080016906F8F00BF1037BD4680BD00BF600D0020AC
S315080016A004ED00E080B584B000AF7860FFF79AF8E3
S315080016B07B68002B02D1374B1B6800E07B68FB6018
S315080016C0FB6804331846FEF796FF0346002B15D130
S315080016D0FB68DA6A304913469B0013449B000B44A7
S315080016E01B68002B0AD1FB68DB6A012202FA03F3A6
S315080016F0DA432A4B1B681340284A1360FB689B6A27
S31508001700002B04D0FB6818331846FEF774FFFB68F5
S31508001710043319462248FEF713FFFFF791F8214BC9
S315080017201B68002B05D0FFF75DF800F005FDFFF7F5
S3150800173087F8184B1B68FA689A4226D1194B1B681A
S31508001740002B16D0184B1B68002B09D04FF05003FE
S3150800175083F31188BFF36F8FBFF34F8FBB60FEE72C
S31508001760124B4FF080521A60BFF34F8FBFF36F8F43
S315080017700BE00B4B1A680E4B1B689A4203D1054BBC
S3150800178000221A6001E000F0D5F900BF1037BD4607
S3150800179080BD00BF600C0020640C0020400D0020B6
S315080017A0240D0020440D0020600D002004ED00E00B
S315080017B0380D002080B586B002AF1E4B019300237A
S315080017C00093002346221C491C48FFF705FEF860D3
S315080017D0FB68012B02D100F07DFEF860FB68012B47
S315080017E015D14FF0500383F31188BFF36F8FBFF302
S315080017F04F8FBB60124B4FF0FF321A60114B01221C
S315080018001A60114B00221A60FEF78EFF0DE0FB6886
S31508001810B3F1FF3F09D14FF0500383F31188BFF3AB
S315080018206F8FBFF34F8F7B60FEE700BF1037BD4653
S3150800183080BD00BF5C0D002018600008ED1F000881
S31508001840580D0020440D00203C0D002080B400AF48
S31508001850044B1B680133034A136000BFBD4680BCB6
S31508001860704700BF600D002080B584B000AF00232C
S31508001870FB600023BB60414B1B68002B09D14FF06E
S31508001880500383F31188BFF36F8FBFF34F8F3B600D
S31508001890FEE7FEF7A7FF394B1B68013B374A136083
S315080018A0364B1B68002B61D1354B1B68002B5DD06E
S315080018B02EE0344BDB68DB68FB60FB6818331846A0
S315080018C0FEF799FEFB6804331846FEF794FEFB689C
S315080018D0DB6A01229A402C4B1B6813432A4A136081
S315080018E0FB68DA6A13469B0013449B00274A1A448E
S315080018F0FB68043319461046FEF722FEFB68DA6ACF
S31508001900234B1B68DB6A9A4202D3224B01221A60D8
S315080019101C4B1B68002BCCD1FB68002B01D000F0B8
S315080019200BFC1D4B1B687B607B68002B10D000F0FE
S3150800193045F80346002B02D0164B01221A607B6835
S31508001940013B7B607B68002BF1D1134B00221A60A8
S31508001950104B1B68002B09D00123BB600F4B4FF0BF
S3150800196080521A60BFF34F8FBFF36F8FFEF768FF81
S31508001970BB6818461037BD4680BD00BF600D002005
S31508001980380D0020F80C0020400D0020640C0020C3
S31508001990600C00204C0D0020480D002004ED00E0EE
S315080019A080B483B000AF044B1B687B607B68184625
S315080019B00C37BD4680BC70473C0D002080B586B00C
S315080019C000AF00237B61504B1B68002B40F08C80D6
S315080019D04E4B1B6801333B614C4A3B6913603B69BC
S315080019E0002B1FD14A4B1B681B68002B09D04FF0F0
S315080019F0500383F31188BFF36F8FBFF34F8F3B609C
S31508001A00FEE7434B1B68FB60424B1B68404A13606A
S31508001A10404AFB681360404B1B6801333E4A13601B
S31508001A2000F08AFB3D4B1B683A699A424DD3384B06
S31508001A301B681B68002B01D1012300E00023002B43
S31508001A4004D0364B4FF0FF321A603EE0304B1B682D
S31508001A50DB68DB68BB60BB685B687B603A697B6890
S31508001A609A4203D22D4A7B6813602EE0BB68043382
S31508001A701846FEF7C0FDBB689B6A002B04D0BB68FE
S31508001A8018331846FEF7B7FDBB68DB6A01229A4091
S31508001A90234B1B681343224A1360BB68DA6A134652
S31508001AA09B0013449B001F4A1A44BB68043319461B
S31508001AB01046FEF745FDBB68DA6A1B4B1B68DB6AF6
S31508001AC09A42B4D301237B61B1E7174B1B68DA6AE4
S31508001AD0144913469B0013449B000B441B68012BB7
S31508001AE007D901237B6104E0104B1B6801330F4AB9
S31508001AF013600F4B1B68002B01D001237B617B69A8
S31508001B0018461837BD4680BD600D00203C0D0020E4
S31508001B10F00C0020F40C0020500D0020580D002079
S31508001B20400D0020640C0020600C0020480D0020A9
S31508001B304C0D002080B588B000AF394B1B68002BD0
S31508001B4003D0384B01221A6065E0364B00221A6032
S31508001B50354B1B681B6BFB614FF0A533BB61FB69FB
S31508001B601A68BB699A4211D1FB6904331A68BB69C2
S31508001B709A420BD1FB6908331A68BB699A4205D1A8
S31508001B80FB690C331A68BB699A4208D0264B1A6857
S31508001B90254B1B6834331946104603F0D4FF234BF4
S31508001BA01B68FB60FB68B3FA83F3FB72FB7AC3F12D
S31508001BB01F037B611E497A6913469B0013449B00E9
S31508001BC00B441B68002B09D14FF0500383F311888F
S31508001BD0BFF36F8FBFF34F8F7B60FEE77A691346BB
S31508001BE09B0013449B00124A13443B613B695B68A4
S31508001BF05A683B695A603B695A683B6908339A4296
S31508001C0004D13B695B685A683B695A603B695B6803
S31508001C10DB68054A136000BF2037BD4680BD00BF9C
S31508001C20600D00204C0D0020600C0020400D0020A7
S31508001C30640C002080B584B000AF786039607B689A
S31508001C40002B09D14FF0500383F31188BFF36F8F30
S31508001C50BFF34F8FFB60FEE7074B1B681833194627
S31508001C607868FEF790FC0121386800F0CDFB00BFCC
S31508001C701037BD4680BD00BF600C002080B586B019
S31508001C8000AFF860B9607A60FB68002B09D14FF0A5
S31508001C90500383F31188BFF36F8FBFF34F8F7B61B8
S31508001CA0FEE7114B1B68002B09D14FF0500383F355
S31508001CB01188BFF36F8FBFF34F8F3B61FEE70B4B66
S31508001CC01B68BA6842F000429A61084B1B681833D1
S31508001CD01946F868FEF734FC0121786800F094FB91
S31508001CE000BF1837BD4680BD600D0020600C00207F
S31508001CF080B586B000AFF860B9607A60FB68002BE3
S31508001D0009D14FF0500383F31188BFF36F8FBFF3E8
S31508001D104F8F7B61FEE70A4B1B6818331946F86834
S31508001D20FEF70EFC7B68002B02D04FF0FF33BB603A
S31508001D307968B86800F068FB00BF1837BD4680BDF3
S31508001D40600C002080B586B000AF78607B68DB68E1
S31508001D50DB683B613B69002B09D14FF0500383F3E5
S31508001D601188BFF36F8FBFF34F8FFB60FEE73B69A8
S31508001D7018331846FEF73FFC1D4B1B68002B1CD179
S31508001D803B6904331846FEF736FC3B69DB6A0122D9
S31508001D909A40184B1B681343164A13603B69DA6A64
S31508001DA013469B0013449B00134A1A443B690433A9
S31508001DB019461046FEF7C4FB05E03B691833194679
S31508001DC00E48FEF7BDFB3B69DA6A0D4B1B68DB6AFA
S31508001DD09A4205D901237B610A4B01221A6001E068
S31508001DE000237B617B6918461837BD4680BD00BF56
S31508001DF0600D0020400D0020640C0020F80C002027
S31508001E00600C00204C0D002080B586B000AF7860CD
S31508001E1039602B4B1B68002B09D14FF0500383F315
S31508001E201188BFF36F8FBFF34F8FFB60FEE73B68E8
S31508001E3043F000427B681A607B68DB683B613B695C
S31508001E40002B09D14FF0500383F31188BFF36F8F2E
S31508001E50BFF34F8FBB60FEE77868FEF7CCFB3B69A4
S31508001E6004331846FEF7C7FB3B69DB6A01229A4032
S31508001E70144B1B681343134A13603B69DA6A13460B
S31508001E809B0013449B00104A1A443B6904331946C5
S31508001E901046FEF755FB3B69DA6A0C4B1B68DB6A92
S31508001EA09A4205D901237B61094B01221A6001E098
S31508001EB000237B617B6918461837BD4680BD00BF85
S31508001EC0600D0020400D0020640C0020600C0020EE
S31508001ED04C0D002080B485B000AF78607B68002B7D
S31508001EE009D14FF0500383F31188BFF36F8FBFF307
S31508001EF04F8FFB60FEE7064B1A687B681A60054B36
S31508001F001A687B685A6000BF1437BD4680BC7047A4
S31508001F10500D00203C0D002080B586B000AF7860DB
S31508001F2039607B68002B09D14FF0500383F3118881
S31508001F30BFF36F8FBFF34F8FFB60FEE73B68002B45
S31508001F4009D14FF0500383F31188BFF36F8FBFF3A6
S31508001F504F8FBB60FEE7FEF745FC1C4B1B683B61D9
S31508001F603B681B68B3F1FF3F02D100237B6126E083
S31508001F707B681A68164B1B689A4207D07B685A68B2
S31508001F803B699A4202D801237B6118E07B685B684B
S31508001F903A69D21A3B681B689A420ED23B681A689D
S31508001FA07B6859683B69CB1A1A443B681A6078689B
S31508001FB0FFF790FF00237B6101E001237B61FEF7B9
S31508001FC03FFC7B6918461837BD4680BD3C0D00208E
S31508001FD0500D002080B400AF034B01221A6000BFE9
S31508001FE0BD4680BC704700BF4C0D002080B582B04E
S31508001FF000AF786000F054F8074B1B68012B07D92F
S31508002000064B4FF080521A60BFF34F8FBFF36F8FA6
S3150800201003F09FFDEEE700BF640C002004ED00E02E
S3150800202080B582B000AF00237B600CE07A68134667
S315080020309B0013449B00124A13441846FEF755FAB0
S315080020407B6801337B607B68042BEFD90D48FEF76C
S315080020504CFA0D48FEF749FA0C48FEF746FA0C48C2
S31508002060FEF743FA0B48FEF740FA0B4B054A1A608F
S315080020700A4B054A1A6000BF0837BD4680BD00BF37
S31508002080640C0020C80C0020DC0C0020F80C002092
S315080020900C0D0020240D0020F00C0020F40C00206C
S315080020A080B582B000AF28E0FFF7D0FB174B1B685E
S315080020B0002B0CBF01230023DBB27B60FFF7D4FBA8
S315080020C07B68002B19D1FEF78DFB104BDB68DB68AC
S315080020D03B603B6804331846FEF78DFA0C4B1B68C9
S315080020E0013B0B4A13600B4B1B68013B094A136003
S315080020F0FEF7A6FB386800F00FF8064B1B68002BA6
S31508002100D2D100BF0837BD4680BD00BF0C0D0020E8
S31508002110380D0020200D002080B582B000AF786011
S315080021207B681B6B1846FEF78FFC7868FEF78CFCFD
S3150800213000BF0837BD4680BD80B483B000AF0E4BE4
S315080021401B681B68002B01D1012300E00023002B2C
S3150800215004D00A4B4FF0FF321A6008E0064B1B68A2
S31508002160DB68DB687B607B685B68044A136000BFDA
S315080021700C37BD4680BC7047F00C0020580D002077
S3150800218080B483B000AF0B4B1B68002B02D1012330
S315080021907B6008E0084B1B68002B02D102237B609A
S315080021A001E000237B607B6818460C37BD4680BC7F
S315080021B0704700BF440D0020600D002080B584B034
S315080021C000AF78607B68FB607B68002B62D0FB6899
S315080021D0DA6A324B1B68DB6A9A425BD2FB689B69F8
S315080021E0002B06DB2D4B1B68DB6AC3F10502FB6877
S315080021F09A61FB685969FB68DA6A13469B001344BF
S315080022009B00274A1344994201D1012300E0002389
S31508002210002B3AD0FB6804331846FEF7ECF9034660
S31508002220002B15D1FB68DA6A1D4913469B00134437
S315080022309B000B441B68002B0AD1FB68DB6A012252
S3150800224002FA03F3DA43174B1B681340154A136067
S31508002250124B1B68DA6AFB68DA62FB68DB6A0122E2
S315080022609A40104B1B6813430E4A1360FB68DA6AE0
S3150800227013469B0013449B00094A1A44FB6804331F
S3150800228019461046FEF75CF904E0044B1B68DA6A47
S31508002290FB68DA6200BF1037BD4680BD600C0020BF
S315080022A0640C0020400D002080B586B000AF786031
S315080022B07B683B6100237B617B68002B6CD0394BC4
S315080022C01B683A699A4209D04FF0500383F3118884
S315080022D0BFF36F8FBFF34F8FFB60FEE73B699B6CC5
S315080022E0002B09D14FF0500383F31188BFF36F8F8A
S315080022F0BFF34F8FBB60FEE73B699B6C5A1E3B6979
S315080023009A643B69DA6A3B695B6C9A4244D03B69DA
S315080023109B6C002B40D13B6904331846FEF76BF9DA
S315080023200346002B15D13B69DA6A1F4913469B0001
S3150800233013449B000B441B68002B0AD13B69DB6ADC
S31508002340012202FA03F3DA43184B1B681340174AB3
S3150800235013603B695A6C3B69DA623B69DB6AC3F115
S3150800236005023B699A613B69DB6A01229A400F4B79
S315080023701B6813430D4A13603B69DA6A13469B00D0
S3150800238013449B00084A1A443B690433194610460D
S31508002390FEF7D6F801237B617B6918461837BD46D8
S315080023A080BD00BF600C0020640C0020400D00209A
S315080023B080B483B000AF094B1B689B697B60074BF1
S315080023C01B68064A1268D26AC2F105029A617B68DE
S315080023D018460C37BD4680BC704700BF600C00200D
S315080023E080B400AF074B1B68002B04D0054B1B6855
S315080023F09A6C01329A64034B1B681846BD4680BC2A
S31508002400704700BF600C002080B584B000AF7860CC
S315080024103960294B1B68FB60284B1B680433184638
S31508002420FEF7E9F80346002B0BD1244B1B68DB6A41
S31508002430012202FA03F3DA43214B1B681340204AB0
S3150800244013607B68B3F1FF3F0AD13B68002B07D0C6
S315080024501A4B1B68043319461A48FEF771F826E02A
S31508002460FA687B681344BB60144B1B68BA685A60E9
S31508002470BA68FB689A4209D2134B1A680F4B1B6855
S31508002480043319461046FEF77EF810E00F4B1A681B
S315080024900A4B1B68043319461046FEF774F80C4BB2
S315080024A01B68BA689A4202D2094ABB68136000BF21
S315080024B01037BD4680BD00BF3C0D0020600C0020D3
S315080024C0400D0020240D0020F40C0020F00C002004
S315080024D0580D002080B584B002AF00237B6000F061
S315080024E0F3FA104B1B68002B0AD00F4B01930323FA
S315080024F00093002346220D490D48FEF76DFF7860CC
S315080025007B68002B09D14FF0500383F31188BFF382
S315080025106F8FBFF34F8F3B60FEE77B68184608371F
S31508002520BD4680BD940D0020980D0020206000084F
S31508002530E926000880B588B002AFF860B9607A600D
S315080025403B602820FEF736FA78617B69002B09D0B4
S315080025507B6901933B6A00933B687A68B968F868B7
S3150800256000F005F87B6918461837BD4680BD80B56A
S3150800257086B000AFF860B9607A603B60BB68002B34
S3150800258009D14FF0500383F31188BFF36F8FBFF360
S315080025904F8F7B61FEE77B6A002B15D000F094FA1B
S315080025A07B6AFA681A607B6ABA689A617B6A7A6893
S315080025B0DA617B6A3A681A627B6A3A6A5A627B6AA5
S315080025C004331846FDF7B0FF00BF1837BD4680BD77
S315080025D080B58AB000AFF860B9607A603B600023C6
S315080025E07B62FB68002B09D14FF0500383F31188F7
S315080025F0BFF36F8FBFF34F8F3B62FEE7194B1B6824
S31508002600002B2AD0BB683B617B687B61FB68BB619A
S31508002610BB68052B18DCFFF7B3FD0346022B09D16F
S31508002620104B186807F1100100233A6BFEF7F0FA11
S31508002630786212E00B4B186807F11001002300229C
S31508002640FEF7E6FA786208E0064B186807F110010B
S3150800265000233A68FEF7D6FB78627B6A1846283765
S31508002660BD4680BD940D002080B588B002AF786065
S3150800267039601C4B1B68DB68DB687B617B6904334C
S315080026801846FDF7B8FF7B69DB69012B21D17B6909
S315080026909A697B68D1187B683A68786900F0C8F847
S315080026A00346002B15D00023009300237A680021E7
S315080026B07869FFF78DFF38613B69002B09D14FF028
S315080026C0500383F31188BFF36F8FBFF34F8FFB60FF
S315080026D0FEE77B695B6A7869984700BF1837BD468D
S315080026E080BD00BF8C0D002080B584B000AF786037
S315080026F007F10803184600F057F8F860BB68194652
S31508002700F86800F003F800F0D5F8F1E780B584B072
S3150800271000AF78603960FFF799F807F108031846A3
S3150800272000F066F8F860BB68002B30D13B68002BD8
S315080027300AD17A68FB689A4206D8FFF795F8F968CD
S315080027407868FFF791FF24E03B68002B08D0134B0D
S315080027501B681B68002B0CBF01230023DBB23B6000
S315080027600F4B18687A68FB68D31A3A681946FEF759
S31508002770FFFDFFF779F80346002B0AD1094B4FF006
S3150800278080521A60BFF34F8FBFF36F8F01E0FFF7D8
S315080027906BF800BF1037BD4680BD00BF900D002006
S315080027A0940D002004ED00E080B485B000AF786099
S315080027B00E4B1B681B68002B0CBF01230023DBB2E2
S315080027C01A467B681A607B681B68002B05D1074B85
S315080027D01B68DB681B68FB6001E00023FB60FB6885
S315080027E018461437BD4680BC704700BF8C0D0020C4
S315080027F080B584B000AF7860FFF7D2F8F8600B4B6D
S315080028001B68FA689A4205D200F0FEF87B68012236
S315080028101A6002E07B6800221A60044AFB681360AB
S31508002820FB6818461037BD4680BD00BF9C0D0020CA
S3150800283080B586B000AFF860B9607A603B60002367
S315080028407B61FB68BA685A60FB68FA681A61BA68FD
S315080028507B689A4212D87A683B68D21AFB689B69E9
S315080028609A4202D301237B611BE0104B1A68FB686E
S31508002870043319461046FDF786FE12E07A683B686F
S315080028809A4206D2BA683B689A4202D301237B6110
S3150800289007E0074B1A68FB68043319461046FDF72C
S315080028A072FE7B6918461837BD4680BD900D00201C
S315080028B08C0D002080B58EB002AF94E07B68002BAB
S315080028C017DA3B1D0433FB62FB6A002B09D14FF074
S315080028D0500383F31188BFF36F8FBFF34F8FFB61EC
S315080028E0FEE7FB6A1B68FA6A5068FA6A926811463C
S315080028F098477B68002B76DBFB68BB62BB6A5B6923
S31508002900002B04D0BB6A04331846FDF774FE3B4619
S315080029101846FFF76DFF78627B68092B62D801A21B
S3150800292052F823F04D2900084D2900084D290008C2
S31508002930E7290008A7290008DD2900084D2900080D
S315080029404D290008E7290008A7290008BA68BB6AC4
S315080029509B69D118BB687A6AB86AFFF769FF0346AC
S31508002960002B40D0BB6A5B6AB86A9847BB6ADB69CA
S31508002970012B38D1BA68BB6A9B691A4400230093B5
S3150800298000230021B86AFFF723FE38623B6A002B52
S3150800299029D14FF0500383F31188BFF36F8FBFF32C
S315080029A04F8FBB61FEE7BA68BB6A9A61BB6A9B69CF
S315080029B0002B09D14FF0500383F31188BFF36F8FB3
S315080029C0BFF34F8F7B61FEE7BB6A9A697B6AD118B2
S315080029D07B6A7A6AB86AFFF72BFF04E0B86AFEF7E3
S315080029E033F800E000BF074B1868391D00230022A2
S315080029F0FEF79CFA0346002B7FF460AF00BF303722
S31508002A00BD4680BD940D002080B588B002AF44E075
S31508002A102B4B1B68DB681B687B61294B1B68DB68D3
S31508002A20DB683B613B6904331846FDF7E4FD3B6907
S31508002A305B6A386998473B69DB69012B2DD13B698D
S31508002A409A697B691344FB60FA687B699A420ED9D6
S31508002A503B69FA685A603B693A691A61184B1A6801
S31508002A603B69043319461046FDF78DFD15E0002332
S31508002A70009300237A6900213869FFF7A9FDB86039
S31508002A80BB68002B09D14FF0500383F31188BFF3BD
S31508002A906F8FBFF34F8F3B60FEE7094B1B681B68C0
S31508002AA0002BB5D1064B1B687B60064B1B68044A96
S31508002AB01360044A7B68136000BF1837BD4680BDA3
S31508002AC08C0D0020900D002080B500AFFDF78AFE22
S31508002AD00D4B1B68002B13D10C48FDF706FD0C485F
S31508002AE0FDF703FD0B4B094A1A600B4B084A1A609F
S31508002AF0002210210520FEF733F80246024B1A6021
S31508002B00FDF79EFE00BF80BD940D0020640D0020D9
S31508002B10780D00208C0D0020900D002080B58AB01D
S31508002B2000AFF860B9607A603B606FF001037B61C3
S31508002B30FB68BB61BB68FB617B683B62064B186838
S31508002B4007F1140100233A68FEF75CF978627B6A9C
S31508002B5018462837BD4680BD940D002080B400AFC6
S31508002B60074B5B6803F00103002B05D0044B054AAD
S31508002B70DA60034B044ADA6000BFBD4680BC704782
S31508002B80003C0240EFCDAB890504030280B400AFD8
S31508002B90044A044B5B6843F00103536000BFBD461B
S31508002BA080BC7047003C024080B584B000AF7860B6
S31508002BB00423FB734FF4004000F0AAF80346FB73A6
S31508002BC0FB7B042B02D17B6800221A60FB7B18462C
S31508002BD01037BD4680BD000080B584B000AF786070
S31508002BE039600423FB734FF4004000F091F8034664
S31508002BF0FB73FB7B042B0ED1094A094B5B6823F454
S31508002C00807353607B683A681A604FF4004000F09E
S31508002C107FF80346FB73FB7B18461037BD4680BD1D
S31508002C20003C024080B586B000AF78600B46FB706A
S31508002C300423FB7500233B610023FB604FF400402F
S31508002C4000F066F80346FB75FB7D042B31D1FB7853
S31508002C50002B09D07B68FA781A704FF4004000F010
S31508002C6057F80346FB7524E07B6823F00303FB60F3
S31508002C70FB681B683B617B6803F00303DB00FF22EC
S31508002C8002FA03F3FB60FB68DB433A6913403B61D6
S31508002C907B6823F003031846FFF786FF0346FB7598
S31508002CA07B6823F0030339691846FFF795FF034647
S31508002CB0FB75FB7D18461837BD4680BD80B483B0CA
S31508002CC000AF0423FB71114B9B6903F00103012B31
S31508002CD002D10123FB7113E00C4B9B6903F480734B
S31508002CE0002B02D00223FB710AE0084B9B6903F410
S31508002CF0F053002B02D00323FB7101E00423FB7180
S31508002D00FB7918460C37BD4680BC7047003C02402C
S31508002D1080B584B000AF78600423FB73FFF7CEFF5D
S31508002D200346FB7306E0FFF7C9FF0346FB737B68A0
S31508002D30013B7B60FB7BDBB2012B02D17B68002B5E
S31508002D40F1D17B68002B01D10523FB73FB7BDBB23A
S31508002D5018461037BD4680BD80B487B000AF78608E
S31508002D60396000237B6100233B610023FB6000235D
S31508002D707B617CE001227B6902FA03F33B613B68D5
S31508002D801A683B691340FB60FA683B699A426BD143
S31508002D907B681A687B695B00032101FA03F3DB434E
S31508002DA01A407B681A607B681A683B681B79194663
S31508002DB07B695B0001FA03F31A437B681A603B6878
S31508002DC01B79012B03D03B681B79022B34D17B6816
S31508002DD09A687B695B00032101FA03F3DB431A4017
S31508002DE07B689A607B689A683B685B7919467B6959
S31508002DF05B0001FA03F31A437B689A607B689B8839
S31508002E009AB27B699BB2194601238B409BB2DB437E
S31508002E109BB213409AB27B689A807B689B889AB269
S31508002E203B689B7919467B699BB201FA03F39BB20F
S31508002E3013439AB27B689A807B68DA687B699BB28F
S31508002E405B00032101FA03F3DB431A407B68DA606F
S31508002E507B68DA683B68DB7919467B695B0001FAAF
S31508002E6003F31A437B68DA607B6901337B617B690C
S31508002E700F2B7FF67FAF00BF1C37BD4680BC70475F
S31508002E8080B485B000AF78600B467B8013467B70B4
S31508002E900023FB600023BB607A787B8803F0070376
S31508002EA09B0002FA03F3FB607B88DB089BB218469B
S31508002EB07B88DB089BB21A467B68083253F82220C7
S31508002EC07B8803F007039B000F2101FA03F3DB431A
S31508002ED002EA03017B6800F1080243F822107B88A6
S31508002EE0DB089BB21A467B68083253F82220FB6837
S31508002EF01343BB607B88DB089BB21A467B680832A3
S31508002F00B96843F8221000BF1437BD4680BC704725
S31508002F1080B483B000AF0346FB80044AFB88136085
S31508002F2000BF0C37BD4680BC704700BF003000406C
S31508002F3080B483B000AF0346FB71044AFB79536043
S31508002F4000BF0C37BD4680BC704700BF003000404C
S31508002F5080B483B000AF0346FB80044AFB889360C5
S31508002F6000BF0C37BD4680BC704700BF003000402C
S31508002F7080B400AF034B4AF6AA221A6000BFBD46CA
S31508002F8080BC70470030004080B400AF034B4CF65D
S31508002F90CC421A6000BFBD4680BC70470030004076
S31508002FA080B483B000AF0346FB71044AFB79136013
S31508002FB000BF0C37BD4680BC704700BF20000E42DC
S31508002FC080B485B000AF78600023FB607B6803F4AB
S31508002FD04033B3F5403F0FD1114B1B68FB60FB68CC
S31508002FE023F0C043FB607B6803F0C043FA681343D1
S31508002FF0FB600B4AFB681360094A094B5B6B23F4B9
S31508003000403353630649064B5A6B7B6803F44033D7
S3150800301013434B6300BF1437BD4680BC704700BFDF
S315080030200038024080B483B000AF78600B46FB706E
S31508003030FB78002B06D00949084BDA697B681343ED
S31508003040CB6106E00549054BDA697B68DB4313402B
S31508003050CB6100BF0C37BD4680BC704700380240C4
S3150800306080B483B000AF78600B46FB70FB78002B0A
S3150800307006D00949084B5A6A7B6813434B6206E037
S315080030800549054B5A6A7B68DB4313404B6200BF10
S315080030900C37BD4680BC70470038024080B487B004
S315080030A000AF0346FB710023FB6000237B6100230E
S315080030B0FB74FB795B09DBB2FB60FB68012B03D170
S315080030C00E4B1B687B6102E00C4B5B6B7B61FB79EB
S315080030D003F01F03FB607A69FB6822FA03F303F027
S315080030E00103002B02D00123FB7401E00023FB74CB
S315080030F0FB7C18461C37BD4680BC7047003802402A
S3150800310080B400AF044A044B5B6B43F0807353638F
S3150800311000BFBD4680BC70470038024080B500AF8E
S315080031204F4A4F4BDB6943F00203D3614D4A4D4B7F
S315080031301B6843F0100313604A4A4A4B9B889BB2AC
S3150800314043F004039BB29380464A464B9B6843F080
S3150800315010039360434A434BDB6843F02003D36074
S31508003160404A404B9B8A9BB243F004039BB293822E
S315080031703B4A3B4BDB6943F00403D3613A4A3A4B7B
S315080031801B6823F040531360374A374B9B6843F05C
S3150800319080539360324A324BDB6943F00403D361B0
S315080031A0314A314B1B6823F0404313602E4A2E4B9D
S315080031B09B6843F08043936001F0C6F8284A284B81
S315080031C0DB6943F00103D361284A284B1B6843F4A3
S315080031D080731360254A254B9B889BB243F01003E6
S315080031E09BB29380214A214B9B6843F4807393607A
S315080031F01E4A1E4BDB6843F40073D3601B4A1B4B05
S315080032009B8A9BB243F010039BB29382144A144BD9
S31508003210DB6943F00403D361134A134B1B6843F07D
S3150800322080631360104A104B9B889BB243F400538B
S315080032309BB293800C4A0C4B9B6843F08063936067
S31508003240094A094BDB6843F00063D360064A064B1C
S315080032509B8A9BB243F400539BB2938200BF80BD06
S315080032600038024000040240000802400000024004
S3150800327080B483B000AF0346FB71084997F907305D
S315080032805B09FA7902F01F02012000FA02F241F8FE
S31508003290232000BF0C37BD4680BC704700E100E024
S315080032A080B483B000AF03463960FB7197F90730E5
S315080032B0002B0BDA0D49FB7903F00F03043B3A6840
S315080032C0D2B21201D2B20B441A7609E0084997F92C
S315080032D007303A68D2B21201D2B20B4483F80023FF
S315080032E000BF0C37BD4680BC704700BF00ED00E04C
S315080032F000E100E080B582B000AF78603E4A3E4B00
S315080033001B6A43F4804313623B4A3B4BDB6943F039
S315080033100203D361394A394B1B6843F400531360DF
S31508003320364A364B1B6A43F0E0631362334A334B23
S315080033309B6843F480539360304A304B1B6843F4D0
S31508003340004313602D4A2D4B1B6A43F0E04313627A
S315080033502A4A2A4B9B6843F4804393602849284BA2
S315080033601B899AB2274B1B8913439BB20B81244BAB
S3150800337000229A81224A224B9B899BB243F004037E
S315080033809BB293811E4A1E4B9B899BB243F008034E
S315080033909BB293811A4A1A4B9B899BB243F40053FA
S315080033A09BB29381164A164B9B899BB243F0100336
S315080033B09BB29381124A124B9B899BB243F020031E
S315080033C09BB293810E4A0E4B9B899BB243F04003F6
S315080033D09BB2938106212520FFF762FF2520FFF780
S315080033E047FF094A7B681360084A7B68136000BF79
S315080033F00837BD4680BD00BF0038024000040240C1
S315080034000038014004000020A40D0020A80D00206B
S3150800341080B582B000AF03463960FB80FB88002B7D
S3150800342018D000F023F80346002B13D10B4A3B684B
S3150800343013600B49094B1B685A1C084802601B7825
S315080034409BB28B80FB88013B9AB2064B1A80064BCF
S3150800345001221A7000BF0837BD4680BDAC0D00209A
S3150800346000380140B20D0020B00D002080B400AF36
S31508003470054B1B78002B01D0012300E000231846DA
S31508003480BD4680BC704700BFB00D002080B500AFB8
S315080034904C4B1B889BB203F04003402B3CD1494A56
S315080034A0484B1B889BB223F040039BB21380464BC4
S315080034B01B88002B0FD04349444B1B685A1C4348B2
S315080034C002601B789BB28B803F4B1B88013B9AB2EC
S315080034D03D4B1A8073E03E4B00221A603D4B19683B
S315080034E03B4B02223C48FFF719FB02463B4B1A604E
S315080034F03A4B1B68002B0BD0354B1B68002B07D0AB
S31508003500374B4FF080521A60BFF34F8FBFF36F8F60
S31508003510344B00221A7052E02A4B1B889BB203F0E8
S315080035202003202B1DD1284B1B88002B12D12E4B94
S315080035301B88FF2B0ED82D4B1A682B4B1B88591C42
S3150800354088B22949088013441E4A928892B2D2B298
S315080035501A7034E01B4B9B889BB2DAB2244B1A7064
S315080035602DE0184B1B889BB203F01003102B26D1B5
S31508003570144B9B889BB2DAB21D4B1A701A4B1B88E8
S31508003580002B1CD0124B00221A60124B1968104BE4
S3150800359001221148FFF7C2FA0246104B1A600F4B78
S315080035A01B68002B0BD00A4B1B68002B07D00C4B53
S315080035B04FF080521A60BFF34F8FBFF36F8F00BF73
S315080035C080BD00BF00380140B20D0020AC0D0020C0
S315080035D0C80D0020C40D00208F040008CC0D002063
S315080035E004ED00E0B00D0020B40D0020A40D00206D
S315080035F0A00D002080B500AF084B1868084B1B8843
S315080036001A46002102F0F3FC044B1B68054A1360B6
S31508003610034B00221A8000BF80BD00BFA80D002002
S31508003620B40D0020A40D002080B400AF024B1B6827
S315080036301846BD4680BC7047A80D002080B400AF70
S31508003640034B1B88DBB21846BD4680BC704700BFDB
S31508003650B40D0020B0B485B000AF78600B46FB709F
S315080036600023BB7329E00023FB7320E0FA7BBB7BB6
S315080036709B0013441A467B681344F97BBA7B920075
S315080036800A4411467A680A441178F87BFA78940055
S31508003690BA7B22440D4C2C2505FB00F0204402443D
S315080036A012784A40D2B21A70FB7B0133FB73FB7B5C
S315080036B0032BDBD9BB7B0133BB73BB7B032BD2D973
S315080036C000BF1437BD46B0BC704700BFD00D002000
S315080036D080B485B000AF78600B46FB700023FB739F
S315080036E019E0FB7B7A6813441B781B09BB73FB7BC9
S315080036F07A6813441B7803F00F037B73FB7B7A68A5
S315080037001344BA7B11017A7B0A4407498A5C1A700A
S31508003710FB7B0133FB73FA7BFB789A42E1D300BF4C
S315080037201437BD4680BC7047D860000880B485B0A1
S3150800373000AF78600B46FB700023FB7319E0FB7B38
S315080037407A6813441B781B09BB73FB7B7A6813449E
S315080037501B7803F00F037B73FB7B7A681344BA7BF1
S3150800376011017A7B0A4407498A5C1A70FB7B01338C
S31508003770FB73FA7BFB789A42E1D300BF1437BD4648
S3150800378080BC7047D861000880B485B000AF786007
S315080037907B685B7BFB737B680D337A68527A1A7099
S315080037A07B6809337A6852791A707B6805337A68B8
S315080037B052781A707B680133FA7B1A707B689B789B
S315080037C0FB737B6802337A68927A1A707B680A33CD
S315080037D0FA7B1A707B689B79FB737B6806337A6879
S315080037E0927B1A707B680E33FA7B1A707B68DB78DB
S315080037F0FB737B6803337A68D2791A707B68073360
S315080038007A68D27A1A707B680B337A68D27B1A7018
S315080038107B680F33FA7B1A7000BF1437BD4680BC2D
S315080038207047000080B586B000AF78600023BB758E
S3150800383040E00023FB7510E0FB7DF97DBA7D920020
S315080038400A4411467A680A44127807F118010B44AB
S3150800385003F8082CFB7D0133FB75FB7D032BEBD9A5
S3150800386007F10C0207F110031946164800F02CF868
S31508003870BB7D9B001A467B6813443A7B1A70BB7D56
S315080038809B0001331A467B6813447A7B1A70BB7D0A
S315080038909B0002331A467B681344BA7B1A70BB7DB9
S315080038A09B0003331A467B681344FA7B1A70BB7D68
S315080038B00133BB75BB7D032BBBD900BF1837BD468B
S315080038C080BD00BFC860000880B586B000AFF8604C
S315080038D0B9607A600023FB752BE0FB7D7A68134498
S315080038E000221A700023BB751DE0BB7DBA6813441D
S315080038F01878FB7D9A00BB7D13441A46FB6813446F
S315080039001B78194600F01CF803461846FB7D7A68B2
S315080039101344FA7D79680A4412784240D2B21A7082
S31508003920BB7D0133BB75BB7D032BDED9FB7D013324
S31508003930FB75FB7D032BD0D900BF1837BD4680BD6C
S3150800394080B485B000AF03460A46FB711346BB71C7
S31508003950FB79FB73BB79093B052B00F2E38001A2D7
S3150800396052F823F07D390008253B0008E1390008A4
S31508003970253B00084D3A0008B93A000897F90F3078
S31508003980DB115BB2BB73FB7B5B00FB73BB7B03F09A
S315080039901B03DAB2FB7B5340FB7397F90F30DB113D
S315080039A05BB2BB73FB7B5B00FB73BB7B03F01B0348
S315080039B0DAB2FB7B5340FB7397F90F30DB115BB22E
S315080039C0BB73FB7B5B00FB73BB7B03F01B03DAB2A9
S315080039D0FB7B5340FB73FA7BFB795340FB73A1E0F7
S315080039E097F90F30DB115BB2BB73FB7B5B00FB7394
S315080039F0BB7B03F01B03DAB2FB7B5340FB7397F9DF
S31508003A000F30DB115BB2BB73FB7B5B00FB73BB7BCD
S31508003A1003F01B03DAB2FB7B5340FB73FA7BFB799B
S31508003A205340FB7397F90F30DB115BB2BB73FB7B1B
S31508003A305B00FB73BB7B03F01B03DAB2FB7B5340D3
S31508003A40FB73FA7BFB795340FB736BE097F90F30F6
S31508003A50DB115BB2BB73FB7B5B00FB73BB7B03F0C9
S31508003A601B03DAB2FB7B5340FB73FA7BFB795340AB
S31508003A70FB7397F90F30DB115BB2BB73FB7B5B0003
S31508003A80FB73BB7B03F01B03DAB2FB7B5340FB7370
S31508003A9097F90F30DB115BB2BB73FB7B5B00FB73E3
S31508003AA0BB7B03F01B03DAB2FB7B5340FB73FA7B49
S31508003AB0FB795340FB7335E097F90F30DB115BB2A6
S31508003AC0BB73FB7B5B00FB73BB7B03F01B03DAB2A8
S31508003AD0FB7B5340FB73FA7BFB795340FB7397F9E7
S31508003AE00F30DB115BB2BB73FB7B5B00FB73BB7BED
S31508003AF003F01B03DAB2FB7B5340FB73FA7BFB79BB
S31508003B005340FB7397F90F30DB115BB2BB73FB7B3A
S31508003B105B00FB73BB7B03F01B03DAB2FB7B5340F2
S31508003B20FB7300BFFB7B18461437BD4680BC704745
S31508003B30F0B585B000AF78600023FB731DE0002365
S31508003B40BB7314E0FA7BBB7BF87BB97B8900014425
S31508003B500846796801440C7877492C2000FB02F264
S31508003B600A44134422461A70BB7B0133BB73BB7BE2
S31508003B70032BE7D9FB7B0133FB73FB7B032BDED9D6
S31508003B800023FB7315E00423BB730CE0FA7BBB7BB5
S31508003B9069492C2000FB02F20A44134400221A70D9
S31508003BA0BB7B0133BB73BB7B2B2BEFD9FB7B013371
S31508003BB0FB73FB7B032BE6D90423BB73B4E000231A
S31508003BC0FB7316E0FA7BBB7BF87BB97B01395A4C51
S31508003BD02C2505FB00F0204401440C7856492C207E
S31508003BE000FB02F20A44134422461A70FB7B013397
S31508003BF0FB73FB7B032BE5D9BB7B03F00303DBB22B
S31508003C00002B66D1BB7B4C4AD35C3B7301237B7389
S31508003C1024E07B7B591E7B7B5A1EBB7B7C7BB87B57
S31508003C20454D2C2606FB04F42C4420440578424CCA
S31508003C302C2000FB02F0204418442C4604703E4811
S31508003C402C2404FB02F2024413441A7807F11003E9
S31508003C500B4403F8082C7B7B01337B737B7B032B9C
S31508003C60D7D9BB7B344A1A44397B82F88410324A46
S31508003C70134493F88430FB7207F1080304211846AD
S31508003C80FFF726FDBB7B397ABA7B9208D2B2013A96
S31508003C902A4850F82220D2B24A40D1B2264AD154F4
S31508003CA001237B7312E07A7BBB7B797B07F11000DB
S31508003CB0014411F8084C20492C2000FB02F20A4462
S31508003CC0134422461A707B7B01337B737B7B032B61
S31508003CD0E9D900237B7321E07A7BBB7B787BB97BB0
S31508003CE0154C2C2505FB00F02044014408787C7B04
S31508003CF0B97B0439104D2C2606FB04F42C442144C8
S31508003D0009784140CCB20C492C2000FB02F20A4447
S31508003D10134422461A707B7B01337B737B7B032B10
S31508003D20DAD9BB7B0133BB73BB7B2B2B7FF647AF43
S31508003D3000BF1437BD46F0BDD00D0020A0600008B6
S31508003D4080B586B000AFF860B9607A60FB70002372
S31508003D507B757868FFF7ECFE5EE00023FB7510E0E4
S31508003D60FA7D7B7D13441A46BB681344F97D7A7D38
S31508003D700A441146FA680A4412781A70FB7D013320
S31508003D80FB75FB7D0F2B05D8FA7D7B7D1A44FB78E6
S31508003D909A42E5DB7B7DBA6813440A211846FFF789
S31508003DA059FC7B7DBA6813441846FFF7EDFC7B7D0A
S31508003DB0BA68134410211846FFF7B8FC0923BB75E7
S31508003DC01DE07B7DBA681344BA7D11461846FFF795
S31508003DD041FC7B7DBA6813441846FFF723FD7B7DBB
S31508003DE0BA6813441846FFF7CFFC7B7DBA681344BC
S31508003DF010211846FFF79AFCBB7D013BBB75BB7DBE
S31508003E00002BDED17B7DBA68134400211846FFF7E4
S31508003E1021FC7B7D10337B757A7DFB789A429CD397
S31508003E2000BF1837BD4680BD90B585B000AF0446C3
S31508003E30084611461A462346FB710346BB710B46D4
S31508003E407B7113467B80924B01221A70914B1B782B
S31508003E505A1CD1B28F4A11701A468F4B7E2199543B
S31508003E608C4B1B785A1CD1B28A4A117019468A4A59
S31508003E70FB795354874B1B785A1CD1B2854A11706B
S31508003E801946854ABB795354824B1B785A1CD1B2C2
S31508003E90804A11701946804A7B795354FB79062B60
S31508003EA000F0E7803B6A002B00F0E380794B1B7833
S31508003EB05A1CD1B2774A11701A467B88D9B2764B0A
S31508003EC09954744B1B785A1CD1B2724A11701A460F
S31508003ED07B881B0A9BB2D9B26F4B99547B8841F2F7
S31508003EE00102934216D10023FB730FE0694B1B783E
S31508003EF05A1CD1B2674A11701946FB7B3A6A1344B9
S31508003F001A78654B5A54FB7B0133FB73FB7B1F2BDB
S31508003F10ECD9DEE07B88B3F5485F04D07B8843F2B2
S31508003F200122934216D10023FB730FE0594B1B78ED
S31508003F305A1CD1B2574A11701946FB7B3A6A134488
S31508003F401A78554B5A54FB7B0133FB73FB7B172BB3
S31508003F50ECD98DE07B88B3F5C04F16D10023FB73EF
S31508003F600FE04C4B1B785A1CD1B24A4A11701946BD
S31508003F70FB7B3A6A13441A78474B5A54FB7B013346
S31508003F80FB73FB7B052BECD9A3E07B88B3F5445F79
S31508003F9018D07B8843F20112934213D07B8843F2F0
S31508003FA0021293420ED07B8843F20312934209D041
S31508003FB07B8843F20412934204D07B8843F20512AD
S31508003FC0934216D10023FB730FE0324B1B785A1C21
S31508003FD0D1B2304A11701946FB7B3A6A13441A78F3
S31508003FE02D4B5A54FB7B0133FB73FB7B032BECD91C
S31508003FF03EE07B88B3F5805F17D07B88B3F5824FA8
S3150800400013D07B8845F6080293420ED07B8845F686
S315080040100C02934209D07B8845F60812934204D0D5
S315080040207B8845F60C12934216D10023FB730FE0EA
S31508004030184B1B785A1CD1B2164A11701946FB7BCD
S315080040403A6A13441A78144B5A54FB7B0133FB73B0
S31508004050FB7B012BECD90BE00E4B1B785A1CD1B21B
S315080040600C4A11701A463B6A19780B4B995430E082
S315080040702FE0FB79062B11D1064B1B785A1CD1B2BF
S31508004080044A11701A463B6A1978034B995420E082
S31508004090800E002084100020840E00203B6A002B2E
S315080040A017D1274B1B785A1CD1B2254A11701A46CC
S315080040B07B88D9B2234B9954214B1B785A1CD1B211
S315080040C01F4A11701A467B881B0A9BB2D9B21D4B30
S315080040D099541B4B1B789BB2013B9BB219461A4855
S315080040E000F0ECF803461A46184B1A80144B1B7856
S315080040F05A1CD1B2124A11701A46144B1B88D9B2EF
S31508004100104B99540E4B1B785A1CD1B20C4A11709D
S315080041101A460E4B1B881B0A9BB2D9B2094B9954F7
S31508004120074B1B785A1CD1B2054A11701A46054B23
S315080041307E21995400F00CF800BF1437BD4690BD97
S3150800414084100020840E0020850E0020820E002098
S3150800415080B582B000AF0023FB710023BB7132E04B
S31508004160BB79234AD35C7E2B04D0BB79204AD35C27
S315080041707D2B1CD1BB79002B19D0BA791D4B1B7826
S31508004180013B9A4213DAFB795A1CFA711A461A4B02
S315080041907D219954FB795A1CFA711946BB79144A40
S315080041A0D35C03F05F03DAB2134B5A5408E0FB7989
S315080041B05A1CFA711946BB790D4AD25C0E4B5A54F1
S315080041C0BB790133BB710B4B1B78BA799A42C7D3BB
S315080041D0FB799BB208491846FFF71AF9074B0022E4
S315080041E01A70044B00221A7000BF0837BD4680BDFE
S315080041F0840E002084100020840F0020800E0020EA
S3150800420080B584B000AF78600B46FB700123FB7362
S315080042100023BB737B681B787E2B48D1FB780E3353
S315080042207A6813441B787E2B41D12BE0FA7BBB7B43
S3150800423013441A467B6813441B787D2B14D1FB7BE9
S315080042407A681344F97BBA7B0A44013279680A44CE
S31508004250127802F00F02D2B242F07002D2B21A708D
S31508004260BB7B0133BB730AE0FB7B7A681344F97B9B
S31508004270BA7B0A4411467A680A4412781A70FB7B9C
S315080042800133FB73FB7B7A6813441B787E2BCDD1F5
S315080042907B6803F10B007B6803F10B01FA7BBB7BA0
S315080042A0D31ADBB20D3BDBB2034AFFF749FD00BF69
S315080042B01037BD4680BD00BF1000002080B485B011
S315080042C000AF78600B467B804FF6FF73FB810023B7
S315080042D0BB812FE0FB891B0A9BB21AB2FB891B0222
S315080042E01BB213431BB2FB81BB897A6813441B7844
S315080042F09AB2FB895340FB81FB891B119BB203F0E1
S315080043000F039AB2FB895340FB81FB891B039AB2C0
S31508004310FB895340FB81FB895B019BB21BB203F40B
S31508004320FF531AB2B7F90E3053401BB2FB81BB8953
S315080043300133BB81BA897B889A42CBD3FB8918465D
S315080043401437BD4680BC704780B500AF00F06AFEE2
S315080043500120FEF725FE154A144B5B6B43F44033E8
S315080043605363124A114B5B6A43F400735362104855
S31508004370FEF726FE0020FEF713FE01214FF400701B
S31508004380FEF76EFE0B4B4E221A600A4A094B9B68D3
S3150800439043F004039360074B074A5A60054A054BE6
S315080043A01B6843F00103136000BF80BD003802405C
S315080043B0000003400024004070148C0180B485B0CE
S315080043C000AF0346FB71FB79012B40F08F809A4BB7
S315080043D01B78002B02D1984B05221A700023FB7319
S315080043E074E0954B1B785A1EFB7B9A4202D1012337
S315080043F0BB7301E00023BB73FB7B052B62D801A2CC
S3150800440052F823F01D4400083944000855440008B2
S31508004410714400088D440008A9440008874A874B60
S315080044209B6923F4006393618449844B9B69BA7B37
S31508004430D20213438B6146E0804A804BDB6A23F441
S315080044408033D3627D497D4BDB6ABA7B1204134302
S31508004450CB6238E0794A794BDB6923F48033D36140
S315080044607649764BDB69BA7B12041343CB612AE0A3
S31508004470724A724B5B6A23F4803353626F496F4BFF
S315080044805B6ABA7B120413434B621CE06B4A6B4BA4
S315080044905B6923F4803353616849684B5B69BA7B6F
S315080044A0120413434B610EE0644A644B5B6923F4C0
S315080044B0007353616149614B5B69BA7B52021343CE
S315080044C04B6100E000BFFB7B0133FB73FB7B052BD5
S315080044D087D95A4A594B9B6943F400639361564BF3
S315080044E01B78013BDAB2544B1A7092E0FB79022B27
S315080044F040F08F80504B1B78052B02D14E4B002283
S315080045001A700023FB7375E04B4B1B785A1CFB7B18
S315080045109A4202D10123BB7301E00023BB73FB7BE4
S31508004520052B63D801A252F823F000BF45450008C1
S31508004530614500087D45000899450008B54500080D
S31508004540D14500083D4A3D4B9B6923F400639361BE
S315080045503A493A4B9B69BA7BD20213438B6146E0D0
S31508004560364A364BDB6A23F48033D3623349334BFE
S31508004570DB6ABA7B12041343CB6238E02F4A2F4B0F
S31508004580DB6923F48033D3612C492C4BDB69BA7B76
S3150800459012041343CB612AE0284A284B5B6A23F4AA
S315080045A0803353622549254B5B6ABA7B1204134351
S315080045B04B621CE0214A214B5B6923F4803353612B
S315080045C01E491E4B5B69BA7B120413434B610EE00E
S315080045D01A4A1A4B5B6923F4007353611749174B40
S315080045E05B69BA7B520213434B6100E000BFFB7B59
S315080045F00133FB73FB7B052B86D9104A0F4B5B698E
S3150800460043F4007353610C4B1B780133DAB20A4B3F
S315080046101A700A4A094B9B6843F00403936000BF6B
S31508004620064B9B6803F00403002BF9D100BF14372F
S31508004630BD4680BC704700BF200000200024004013
S3150800464080B400AF1F4A1F4B9B6923F40063936134
S315080046501C4A1C4B9B6993611A4A1A4BDB6A23F462
S315080046608033D362174A174BDB6AD362154A154B58
S31508004670DB6923F48033D361124A124BDB69D361B9
S31508004680104A104B5B6A23F4803353620D4A0D4B74
S315080046905B6A53620B4A0B4B5B6923F480335361A5
S315080046A0084A084B5B695361064A064B5B6923F463
S315080046B000735361034A034B5B69536100BFBD46F0
S315080046C080BC70470024004080B584B000AF786095
S315080046D00023FB730AE0FB7B1946786800F01CF898
S315080046E07B6801337B60FB7B0133FB73FB7B052B0C
S315080046F0F1D9084A074B9B6843F00403936000BF4F
S31508004700044B9B6803F00403002BF9D100BF103754
S31508004710BD4680BD0024004090B587B002AF7860E2
S315080047200B46FB70786800F0DBFBFB78052B00F284
S31508004730218201A252F823F0514700085147000888
S315080047405147000851470008A5480008194A0008BB
S3150800475007F10D0407F10E0207F10F01F87807F1CA
S315080047600C030093234600F00DFAA94CA84B5B698D
S31508004770A84AD27802F00102F97B02FA01F1A54AA9
S31508004780D27802F00200BA7B013A00FA02F211432B
S31508004790A04AD27802F004007A7B023A00FA02F2C2
S315080047A011439C4AD27802F008003A7B033A00FA91
S315080047B002F20A4313436361954C954BDB69954AAC
S315080047C0927802F00102F97B02FA01F1914A927895
S315080047D002F00200BA7B013A00FA02F211438D4A4E
S315080047E0927802F004007A7B023A00FA02F2114348
S315080047F0884A927802F008003A7B033A00FA02F2F5
S315080048000A431343E361824C814B5B6A814A5278BF
S3150800481002F00102F97B02FA01F17E4A527802F0AF
S315080048200200BA7B013A00FA02F21143794A527839
S3150800483002F004007A7B023A00FA02F21143754A42
S31508004840527802F008003A7B033A00FA02F20A4369
S31508004850134363626E4C6E4BDB6A6E4A127802F043
S315080048600102F97B02FA01F16A4A127802F00200A3
S31508004870BA7B013A00FA02F21143664A127802F04C
S3150800488004007A7B023A00FA02F21143614A12786E
S3150800489002F008003A7B033A00FA02F20A4313438D
S315080048A0E36267E107F10D0407F10E0207F10F0154
S315080048B0F87807F10C030093234600F063F9544C8B
S315080048C0534B5B69534AD27802F00102F97B02FA2C
S315080048D001F1504AD27802F00200BA7B013A00FA96
S315080048E002F20A4313436361494C494B9B69494A9F
S315080048F0D27802F004017A7B023A9140454AD2788E
S3150800490002F008003A7B033A00FA02F20A4313431C
S31508004910A3613F4C3E4BDB693E4A927802F00102A6
S31508004920F97B02FA01F13B4A927802F00200BA7B5F
S31508004930013A00FA02F20A431343E361344C344B5A
S315080049401B6A344A927802F004017A7B023A914053
S31508004950304A927802F008003A7B033A00FA02F2EB
S315080049600A43134323622A4C294B5B6A294A527825
S3150800497002F00102F97B02FA01F1264A527802F0A6
S315080049800200BA7B013A00FA02F20A431343636251
S315080049901F4C1F4B9B6A1F4A527802F004017A7B10
S315080049A0023A91401B4A527802F008003A7B033AD1
S315080049B000FA02F20A431343A362154C144BDB6A4E
S315080049C0144A127802F00102F97B02FA01F1114A3F
S315080049D0127802F00200BA7B013A00FA02F20A43A0
S315080049E01343E3620A4C0A4B1B6B0A4A127802F01D
S315080049F004017A7B023A9140064A127802F00800CE
S31508004A003A7B033A00FA02F20A4313432363B1E0FE
S31508004A10002400408810002007F10D0407F10E025B
S31508004A2007F10F01F87807F10C030093234600F00D
S31508004A30A9F8524C514B5B69514AD27802F00102EF
S31508004A40F97B02FA01F14E4AD27802F00200BA7BEB
S31508004A50013A00FA02F20A43134363614748474B97
S31508004A609B69474AD27802F004017A7B023A01FA36
S31508004A7002F213438361414C404BDB69404A92780A
S31508004A8002F00102F97B02FA01F13D4A927802F03E
S31508004A900200BA7B013A00FA02F20A431343E361C1
S31508004AA0364C364B1B6A364A927802F004017A7BFA
S31508004AB0023A9140324A927802F008003A7B033A69
S31508004AC000FA02F20A43134323622C4C2B4B5B6A0F
S31508004AD02B4A527802F00102F97B02FA01F1284AC0
S31508004AE0527802F00200BA7B013A00FA02F20A434F
S31508004AF013436362214C214B9B6A214A527802F088
S31508004B0004017A7B023A91401D4A527802F0080065
S31508004B103A7B033A00FA02F20A431343A362174C9C
S31508004B20164BDB6A164A127802F00102F97B02FA82
S31508004B3001F1134A127802F00200BA7B013A00FA30
S31508004B4002F20A431343E3620C4C0C4B1B6B0C4AF0
S31508004B50127802F004017A7B023A9140084A1278E8
S31508004B6002F008003A7B033A00FA02F20A431343BA
S31508004B70236300BF00BF1437BD4690BD0024004024
S31508004B808810002090B484B000AFB9607A603B60AA
S31508004B900346FB73FB7B052B5CD801A252F823F076
S31508004BA0B94B0008D34B0008ED4B0008074C00082A
S31508004BB0214C00083B4C0008BB680C221A707B6825
S31508004BC00B221A703B680D221A70BB690E221A70E6
S31508004BD040E0BB680A221A707B6806221A703B6896
S31508004BE00F221A70BB6918221A7033E0BB680522B7
S31508004BF01A707B6817221A703B6819221A70BB69EB
S31508004C001A221A7026E0BB6816221A707B680422DC
S31508004C101A703B681B221A70BB6911221A7019E0B8
S31508004C20BB6803221A707B6802221A703B68082246
S31508004C301A70BB6909221A700CE0BB6812221A7036
S31508004C407B6813221A703B680A221A70BB690B220A
S31508004C501A7000BFFB7B032B75D88148804B5B69B4
S31508004C60BA6812781146012202FA01F17A681278B6
S31508004C70013A022404FA02F211433A681278023A17
S31508004C80042404FA02F20A43D243134043617448E7
S31508004C90734BDB69BA6812781146012202FA01F1F0
S31508004CA07A681278013A022404FA02F211433A6841
S31508004CB01278023A042404FA02F21143BA69127805
S31508004CC0033A082404FA02F20A43D2431340C361A2
S31508004CD06348634B5B6A7A681278013A022191400D
S31508004CE03A681278023A042404FA02F21143BA69BD
S31508004CF01278033A082404FA02F20A43D24313400C
S31508004D0043625748564BDB6ABA6812781146012245
S31508004D1002FA01F17A681278013A022404FA02F2D8
S31508004D2011433A681278023A042404FA02F211434B
S31508004D30BA691278033A082404FA02F20A43D243FB
S31508004D401340C36286E04648454B5B69BA681278E9
S31508004D501146012202FA01F17A681278013A022410
S31508004D6004FA02F20A43D243134043613C493C4BDE
S31508004D709B693A681278023A042000FA02F2D24392
S31508004D8013408B613648364BDB69BA681278114690
S31508004D90012202FA01F17A681278013A022404FA29
S31508004DA002F20A43D2431340C3612D482C4B1B6AB7
S31508004DB03A681278023A04219140BA691278033A9D
S31508004DC0082404FA02F20A43D24313400362244930
S31508004DD0234B5B6A7A681278013A022000FA02F2DB
S31508004DE0D24313404B621E481D4B9B6A3A681278A1
S31508004DF0023A04219140BA691278033A082404FA5F
S31508004E0002F20A43D243134083621548144BDB6A05
S31508004E10BA6812781146012202FA01F17A68127804
S31508004E20013A022404FA02F20A43D2431340C36247
S31508004E300B480B4B1B6B3A681278023A04219140D7
S31508004E40BA691278033A082404FA02F20A43D243EA
S31508004E501340036300BF1037BD4690BC704700BFC0
S31508004E600024004080B483B000AF1C4A1B4B5B692A
S31508004E7003F481335361194A184B9B6903F40063A1
S31508004E809361164A154BDB6903F48033D361134AE1
S31508004E90124B5B6A03F480335362104A0F4BDB6A8A
S31508004EA003F48033D3620D4B00221A620B4B0022A7
S31508004EB09A620723FB7109E0084AFB7904339B00D1
S31508004EC0134400225A60FB790133FB71FB790F2BDF
S31508004ED0F2D900BF0C37BD4680BC7047002400409D
S31508004EE080B485B000AF78600023FB8100237B8106
S31508004EF000237B737B681B785A2B94BF01230023FE
S31508004F00DAB27B681B78402B8CBF01230023DBB207
S31508004F101340DBB2002B07D07B681B78413B3C4A29
S31508004F2032F81330FB8155E07B681B787A2B94BFE7
S31508004F3001230023DAB27B681B78602B8CBF012320
S31508004F400023DBB21340DBB2002B07D07B681B784B
S31508004F50613B2F4A32F81330FB813BE07B681B78B4
S31508004F60392B94BF01230023DAB27B681B782F2BD9
S31508004F708CBF01230023DBB21340DBB2002B07D022
S31508004F807B681B78303B234A32F81330FB8121E0DB
S31508004F907B681B782A2B03D14FF6FF73FB8119E038
S31508004FA07B681B782D2B03D14FF40153FB8111E04D
S31508004FB07B681B782F2B03D144F22003FB8109E081
S31508004FC07B681B783A2B03D14FF40173FB8101E010
S31508004FD00023FB8100237B7312E07B7B0E4A32F8A9
S31508004FE01320FB8913407B817B7B7A89797B0B486D
S31508004FF0415C0A41D1B20A4AD1547B7B01337B73A7
S315080050007B7B032BE9D900BF1437BD4680BC7047AC
S31508005010E462000818630008D8620008E062000825
S315080050208810002080B582B000AF01210F20FDF75F
S31508005030F9FF48F2CE733B6002237B7102233B7172
S315080050400023BB710023FB713B4619466848FDF7F0
S3150800505083FE4FF63B733B603B4619466548FDF7B2
S315080050607BFE41F6FF733B603B4619466248FDF7F7
S3150800507073FE04233B603B4619466048FDF76CFE09
S315080050800B2208215A48FDF7FBFE0B220921584836
S31508005090FDF7F6FE0B220A215548FDF7F1FE0B2215
S315080050A009215448FDF7ECFE0B2201215048FDF773
S315080050B0E7FE0B2202214E48FDF7E2FE0B220321F2
S315080050C04B48FDF7DDFE0B2206214948FDF7D8FEC1
S315080050D00B2207214648FDF7D3FE0B22002145483F
S315080050E0FDF7CEFE0B2201214248FDF7C9FE0B2231
S315080050F003214048FDF7C4FE0B2204213D48FDF775
S31508005100BFFE0B2205213B48FDF7BAFE0B220A21FA
S315080051103848FDF7B5FE0B220B213648FDF7B0FEE1
S315080051200B220C213348FDF7ABFE0B220D2131482B
S31508005130FDF7A6FE0B220E212E48FDF7A1FE0B2237
S315080051400F212C48FDF79CFE0B2208212948FDF764
S3150800515097FE0B220F212648FDF792FE0B2200210F
S315080051602548FDF78DFE0B2201212348FDF788FE11
S315080051700B2202212048FDF783FE0B2203211E483D
S31508005180FDF77EFE0B2204211B48FDF779FE0B2254
S3150800519005211948FDF774FE0B2206211648FDF76E
S315080051A06FFE0B2207211448FDF76AFE0B22082121
S315080051B01148FDF765FE0B2209210F48FDF760FE31
S315080051C00B220A210C48FDF75BFE0B220B210A482D
S315080051D0FDF756FE0B220C210748FDF751FE0B2260
S315080051E002210648FDF74CFE00BF0837BD4680BDC4
S315080051F0000002400004024000080240000C024081
S3150800520080B485B000AF78600B467B8013463B8040
S315080052103B881B0A9BB2FB733B88BB730023BB818D
S3150800522011E07B685A1C7A601A78BB7B5340DBB264
S31508005230BB81BB890D4AD25CFB7B5340BB73BB89E0
S315080052400B4AD35CFB737B885A1E7A80002BE8D105
S31508005250FB7B1B021AB2BB7B1BB213431BB29BB26E
S3150800526018461437BD4680BC704700BF2C6300083B
S315080052702C64000880B400AFBFF34F8F0549054B77
S31508005280DB6803F4E062044B1343CB60BFF34F8F34
S31508005290FEE700BF00ED00E00400FA0590B585B012
S315080052A002AF2C4A2B4B9B6843F4805393605D20D6
S315080052B0FDF7F4FE0346002B01D0FDF721FF45F26A
S315080052C05550FDF725FE0520FDF732FE40F6FF7026
S315080052D0FDF73EFEFDF758FEFDF720FF002301937C
S315080052E001230093002346221B491C48FCF774F847
S315080052F01B4B19681B4B0093002300221A48FDF725
S3150800530019F90246194B1A60194B1968194B00937B
S31508005310002301221848FDF70DF90246174B1A60BB
S31508005320164B1C68FCF73CFB02460023009300233F
S3150800533001212046FDF74CF9FAF70AFF0246104B01
S315080053401A6000237B607B6883F31188FCF732FAC6
S31508005350FEE700BF002004E0286000083D5500086D
S3150800536024000020C154000830600008B80D002051
S3150800537028000020E154000838600008BC0D002011
S31508005380C40D002080B582B000AF7860434A434B15
S315080053909B8A9BB283F004039BB29382404B1B8A81
S315080053A09BB29B0B9BB203F00103002B6FD13C4BC6
S315080053B01B8A9BB2DB0B9BB203F00103002B66D161
S315080053C0364A364B9B8A9BB243F004039BB29382C0
S315080053D0FFF748FDFFF734F93248FFF775F900BFC4
S315080053E02F4B1B8A9BB29B0B9BB203F00103002B2E
S315080053F0F6D02B4B1B8A9BB2DB0B9BB203F0010347
S31508005400002BEDD0002000F06DFB03461A46264B14
S315080054101A70264B00221A7021E0244B1B781A4674
S31508005420642303FB02F3224A13446322002118462D
S3150800543000F0DDFD1D4B1B781A4613469B001344EE
S315080054409A0013441B4A134419220021184600F0F7
S31508005450CEFD164B1B780133DAB2144B1A70134B78
S315080054601A78114B1B789A42D7D32E22002112485C
S3150800547000F0BDFD0021002000F049FB0F4B4EF661
S3150800548060221A60FFF7DCF8074B00221A70FDF756
S315080054906FFD00BF0837BD4680BD00BF000402404F
S315080054A0000802404060000897100020601B00209A
S315080054B0B4110020701B0020181B002028000020B3
S315080054C080B582B000AF78602E220021034800F034
S315080054D08EFD00BF0837BD4680BD00BF181B0020E3
S315080054E080B582B000AF7860114B1B684EF660221B
S315080054F0934218D00F4B1B780F4A03F5A87352F83E
S315080055002330002B03D00220FEF758FF0BE0094B8F
S315080055101B78094A03F5B47352F82330002B02D0DE
S315080055200120FEF74BFF00BF0837BD4680BD00BF10
S3150800553028000020141B0020701B002090B585B0A1
S3150800554002AF78604748FDF7D5FE474A464B9B8A27
S315080055509BB223F400539BB29382444B1B680F21E2
S315080055601846FAF7D5FE414B1868414B1B6800935D
S31508005570012301220121FAF703FE02463D4B1A6078
S31508005580FEF752F803461B78022B20D0364A364BD4
S315080055909B8A9BB223F400539BB293820023009309
S315080055A00023002200210620FEF73EFCFEF722F823
S315080055B02E4B18682E4B1B680093012301220121EC
S315080055C0FAF7DEFD02462B4B1A60FEF713F82A4B54
S315080055D01B681846FCF732F8284944F25F40FDF785
S315080055E017FF224B1B680F211846FAF791FE204B2E
S315080055F04FF4FA621A601D4B18681D4B1B6800931E
S31508005600012301220221FAF7BBFD0246194B1A6053
S31508005610184B1B6803F00203002B01D1FFF72AFE83
S31508005620FDF7E8FF124B4FF47A721A600F4B1868B1
S315080056300F4B1B680093012301220121FAF7A0FDF5
S3150800564002460C4B1A600B4B1B6803F00103002B38
S3150800565016D0FDF7E9FF03461B78062B10D1FDF798
S31508005660C9FF0FE0F025002000080240C40D002005
S31508005670300000205C1B00202C00002000BB010825
S31508005680FFF7F8FD924A924B9B8A9BB243F400536C
S315080056909BB293828F4B03221A708E4B01225A704B
S315080056A04FF6FF7206218C48FFF7AAFD03461A46F5
S315080056B0884B5A80874B00221A71864B01225A71F1
S315080056C0844B42F6F502DA80824B42F28B521A81FB
S315080056D0804B01229A72814B4FF4FA721A60804B02
S315080056E064221A607B4B009344F2051301220021C1
S315080056F00120FEF799FBFDF77DFF794B1B681846DD
S31508005700FBF79CFF774B009344F20113012200211B
S315080057100120FEF789FBFDF76DFF714B1B681846E4
S31508005720FBF78CFF704B009344F201230122002102
S315080057300120FEF779FBFDF75DFF694B1B681846EC
S31508005740FBF77CFF694B009345F60803012200210D
S315080057500120FEF769FBFDF74DFF614B1B681846F4
S31508005760FBF76CFF624B009345F60C030122002100
S315080057700120FEF759FBFDF73DFF594B1B681846FC
S31508005780FBF75CFF5B4B009344F2021301220021F6
S315080057900120FEF749FBFDF72DFF514B1B68184604
S315080057A0FBF74CFF544B00934FF480530122002122
S315080057B00120FEF739FBFDF71DFF494B1B6818460C
S315080057C0FBF73CFF4D4B009341F2020301220021F7
S315080057D00120FEF729FB424B1B681846FBF72EFFF4
S315080057E0FDF708FF464B1B680F211846FAF790FD90
S315080057F03B4B4FF47A721A60394B1B681846FBF715
S315080058001DFF002300934FF4B84300220021012016
S31508005810FEF70AFB3A4B1868304B1B6800930123C6
S3150800582001220121FAF7ACFC0246364B1A60354BC9
S315080058301B6803F00103002B35D0FDF7F5FE034680
S3150800584006331B7803F00103012B2CD1FDF7D2FE9A
S31508005850234B1B681846FBF7F1FE0023019301232F
S3150800586000930023462228492848FBF7B5FD284B14
S315080058700093002301224FF448712648FCF75AFE8C
S315080058800246254B1A60244B1C68FCF789F8024629
S3150800589000230093002301212046FCF799FE0020EF
S315080058A0FBF700FF10E0FDF7A5FE1C4B1B78042B49
S315080058B006D81A4B1B780133DAB2184B1A709BE7D5
S315080058C0164B00221A7061E60C37BD4690BD00BF24
S315080058D000080240641B002000AF010830000020C9
S315080058E02C000020651B0020691B00206A1B002075
S315080058F06C1B00206E1B0020661B0020681B002006
S31508005900C40D00205C1B00204860000821590008CF
S315080059108553000850600008C00D0020961000202E
S3150800592080B584B002AF7860284B294A1A60FFF721
S3150800593099FA284B30221A70264B30225A70254B7A
S3150800594030229A70234B3022DA70224B30221A7199
S31508005950204B30225A711F48FEF7B6FE1E4B1B68B5
S315080059600F211846FAF7D4FCFDF744FE1A4B1868BF
S31508005970164B1B680093012301220121FAF700FC4C
S315080059800246164B1A60154B1B6803F00103002BE1
S31508005990E4D0FDF753FE03460F3BDBB21946104829
S315080059A0FEF72EFC0E4BDB7A022BD7D1FFF75AFAFD
S315080059B00C4B1B68184600F017F80A4B1B68013396
S315080059C0084A1360FA20FBF739FEC7E730000020C3
S315080059D0804F12008C100020C40D00205C1B002094
S315080059E0F0250020AC10002080B584B000AF7860A8
S315080059F0364B7A683649184600F0B3FA0346DAB2E7
S31508005A00344B1A70344B1B781A46344B134493F8AC
S31508005A10683AC3F10503FB7313E0FB7B0533304A91
S31508005A20D35C202B05D0FB7B05332D4AD35C002B9A
S31508005A3004D1FB7B05332A4A3021D154FB7B013341
S31508005A40FB73FB7B042BE8D9234B1B781A46234BA5
S31508005A50134493F8683A01331E4A1278934228DDB4
S31508005A600023FB7316E0FB7BC3F105031C4AD35CDA
S31508005A70202B06D0FB7BC3F10503194AD35C002B08
S31508005A8005D1FB7BC3F10503154A3021D154FB7BB5
S31508005A900133FB73FA7B104B1B7819460F4B0B44EB
S31508005AA093F8683A19460B4B1B78CB1A01339A427E
S31508005AB0D9DB084B1B781A46094B13441846FEF7E0
S31508005AC003FE00BF1037BD4680BD00BFA2100020F0
S31508005AD080600008471B0020141B0020701B002054
S31508005AE09C10002080B485B000AF78600023FB735B
S31508005AF07B6803F1006303F500237B607B681B6802
S31508005B00FB73FB7B18461437BD4680BC704780B5CF
S31508005B1082B000AF78600B46FB707B6803F10063C8
S31508005B2003F500237B60FDF719F8FB7819467868BA
S31508005B30FDF778F8FDF72AF800BF0837BD4680BD9F
S31508005B4080B400AFFEE780B483B000AF78603960F8
S31508005B50FEE780B582B000AFFAF78CFF03467B609C
S31508005B607B6800BF0837BD4680BD0000DFF834D02B
S31508005B70002103E00C4B5B58435004310B480C4B97
S31508005B8042189A42F6D30B4A02E0002342F8043B35
S31508005B90094B9A42F9D300F02BF800F0F9F9FFF710
S31508005BA07DFB7047002800203465000800000020AF
S31508005BB03400002034000020F0260020FEE780B4E0
S31508005BC000AF00BFBD4680BC704780B400AFFEE79B
S31508005BD080B400AFFEE780B400AFFEE780B400AF44
S31508005BE0FEE780B400AF00BFBD4680BC704700002A
S31508005BF080B500AF154A154B1B6843F480731360D4
S31508005C001249124B9A68124B13408B600F4A0F4B7E
S31508005C101B6823F0885323F0011313600B4A0B4BC0
S31508005C201B6823F480231360084A084B9B6823F4F7
S31508005C307D039360054B0022DA6000F00DF8054BF2
S31508005C404FF000629A6000BF80BD00BF0038024076
S31508005C500CC0FF8800ED00E080B582B000AF0023DD
S31508005C607B6000233B600120FDF79AF9494A494BBE
S31508005C705B6B43F440335363464A464B5B6A43F4D3
S31508005C80007353624448FDF79BF90020FDF788F935
S31508005C90404A404B1B6843F4803313603D4B1B68F6
S31508005CA003F400333B607B6801337B603B68002B61
S31508005CB003D17B68B3F5A06FF0D1364B1B6803F4AC
S31508005CC00033002B02D001233B6001E000233B6038
S31508005CD03B68012B5AD1314A304B1B6843F0040309
S31508005CE013602E4A2D4B1B6843F0020313602B4AA0
S31508005CF02A4B1B6843F001031360264A254B5B6A4F
S31508005D0043F080535362264B4FF400621A6000BF7B
S31508005D10234B5B6803F01003002BF9D11D4A1D4B7A
S31508005D209B6893601B4A1B4B9B689360194A194BE7
S31508005D309B689360174A174B9B6823F47D0393600F
S31508005D40144A144B9B6843F411039360114A114B90
S31508005D501B6843F08073136000BF0E4B1B6803F08B
S31508005D600073002BF9D00B4A0A4B9B6823F00303F8
S31508005D709360084A074B9B6843F00303936000BF90
S31508005D80044B9B6803F00C030C2BF9D100BF0837B2
S31508005D90BD4680BD0038024000000340003C02407A
S31508005DA00070004080B487B000AFF860B9607A60D0
S31508005DB001237B6104E07B697A6802FB03F37B615C
S31508005DC07B69BA68B2FBF3F27B689A42F3D229E0A0
S31508005DD07B69BA68B2FBF3F33B617A69BB68B3FBCC
S31508005DE0F2F102FB01F29B1ABB607A697B6892FBAF
S31508005DF0F3F37B613B69092B0ADDFB681B68591CB9
S31508005E00FA6811603A69D2B23732D2B21A7009E02A
S31508005E10FB681B68591CFA6811603A69D2B23032BD
S31508005E20D2B21A707B69002BD2D100BF1C37BD468F
S31508005E3080BC704780B588B000AFF860B9607A60FA
S31508005E40FB687B617DE0BB681B78252B71D1BB683D
S31508005E500133BB60BB681B78642B1ED0642B06DC41
S31508005E60582B50D0632B0ED0252B58D05DE0732BC2
S31508005E702BD0732B02DC692B0FD056E0752B37D04D
S31508005E80782B40D051E0FB685A1CFA607A68111DDD
S31508005E9079601268D2B21A7047E07B681A1D7A6078
S31508005EA01B68FB61FB69002B07DAFB695B42FB6138
S31508005EB0FB685A1CFA602D221A70F96907F10C035F
S31508005EC00A221846FFF76EFF2FE07B681A1D7A60D4
S31508005ED01B68BB6107E0FB685A1CFA60BA69511C6B
S31508005EE0B96112781A70BB691B78002BF3D11CE0D4
S31508005EF07B681A1D7A60196807F10C030A2218468E
S31508005F00FFF750FF11E07B681A1D7A601B68194677
S31508005F1007F10C0310221846FFF744FF05E0FB685B
S31508005F205A1CFA6025221A7000BFBB680133BB6091
S31508005F3007E0FB685A1CFA60BA68511CB960127807
S31508005F401A70BB681B78002B7FF47DAFFB680022B4
S31508005F501A70FB681A467B69D31A18462037BD465D
S31508005F6080BD0EB480B585B000AF786007F1200318
S31508005F70BB60BA68F9697868FFF75CFFF860FB6888
S31508005F8018461437BD46BDE8804003B07047000088
S31508005F9070B500250C4E0D4CA41BA410A54209D1C2
S31508005FA000F02EF800250A4E0A4CA41BA410A542A0
S31508005FB005D170BD56F8253098470135EEE756F8F5
S31508005FC0253098470135F2E72C6500082C6500084E
S31508005FD02C6500083065000810B5431E0A44914236
S31508005FE000D110BD11F8014B03F8014FF7E703463E
S31508005FF00244934200D1704703F8011BF9E70000F9
S31508006000F8B500BFF8BC08BC9E467047F8B500BF97
S30D08006010F8BC08BC9E46704767
S3150800601849444C4500000000546D722053766300CD
S31508006028496E6974506C63004D65737361676500E2
S315080060384469736B4C636400524553455400000029
S3150800604854785278506C63004C454454696D6572AF
S3150800605800000000383838002A2A2A2A2A2A000086
S31508006068504C43204F4B0000504C432045520000EB
S315080060782020300025752F002575000025753A0063
S31508006088255800004E4F524D414C00005052554578
S3150800609842410000203139000100000002000000DA
S315080060A8040000000800000010000000200000009E
S315080060B840000000800000001B00000036000000B9
S315080060C80E0B0D09090E0B0D0D090E0B0B0D090EFE
S315080060D8637C777BF26B6FC53001672BFED7AB768F
S315080060E8CA82C97DFA5947F0ADD4A2AF9CA472C03A
S315080060F8B7FD9326363FF7CC34A5E5F171D83115A7
S3150800610804C723C31896059A071280E2EB27B275C7
S3150800611809832C1A1B6E5AA0523BD6B329E32F843F
S3150800612853D100ED20FCB15B6ACBBE394A4C58CF37
S31508006138D0EFAAFB434D338545F9027F503C9FA80B
S3150800614851A3408F929D38F5BCB6DA2110FFF3D2D9
S31508006158CD0C13EC5F974417C4A77E3D645D19738D
S3150800616860814FDC222A908846EEB814DE5E0BDB87
S31508006178E0323A0A4906245CC2D3AC629195E479BE
S31508006188E7C8376D8DD54EA96C56F4EA657AAE0818
S31508006198BA78252E1CA6B4C6E8DD741F4BBD8B8AB3
S315080061A8703EB5664803F60E613557B986C11D9E19
S315080061B8E1F8981169D98E949B1E87E9CE5528DF90
S315080061C88CA1890DBFE6426841992D0FB054BB16BC
S315080061D852096AD53036A538BF40A39E81F3D7FB46
S315080061E87CE339829B2FFF87348E4344C4DEE9CB90
S315080061F8547B9432A6C2233DEE4C950B42FAC34E05
S31508006208082EA16628D924B2765BA2496D8BD125BA
S3150800621872F8F66486689816D4A45CCC5D65B6925E
S315080062286C704850FDEDB9DA5E154657A78D9D8402
S3150800623890D8AB008CBCD30AF7E45805B8B3450622
S31508006248D02C1E8FCA3F0F02C1AFBD0301138A6B3C
S315080062583A9111414F67DCEA97F2CFCEF0B4E6736C
S3150800626896AC7422E7AD3585E2F937E81C75DF6E1A
S3150800627847F11A711D29C5896FB7620EAA18BE1B80
S31508006288FC563E4BC6D279209ADBC0FE78CD5AF426
S315080062981FDDA8338807C731B11210592780EC5F6C
S315080062A860517FA919B54A0D2DE57A9F93C99CEFC8
S315080062B8A0E03B4DAE2AF5B0C8EBBB3C83539961C9
S315080062C8172B047EBA77D626E169146355210C7D07
S315080062D800F0000FF0000F000C080400D0B8C5AA9B
S315080062E81118858A5118501811B8D0B0050A818036
S315080062F872101110B09492949198D0389398D23815
S3150800630851A8040A9190828492D0224424042148F0
S31508006318B1D8A080C138C1A8D0A051A851B88088E2
S31508006328D1B8D1A800C1814001C0804101C08041CF
S3150800633800C1814001C0804100C1814000C181403F
S3150800634801C0804101C0804100C1814000C181402F
S3150800635801C0804100C1814001C0804101C080411F
S3150800636800C1814001C0804100C1814000C181400F
S3150800637801C0804100C1814001C0804101C08041FF
S3150800638800C1814000C1814001C0804101C08041EF
S3150800639800C1814001C0804100C1814000C18140DF
S315080063A801C0804101C0804100C1814000C18140CF
S315080063B801C0804100C1814001C0804101C08041BF
S315080063C800C1814000C1814001C0804101C08041AF
S315080063D800C1814001C0804100C1814000C181409F
S315080063E801C0804100C1814001C0804101C080418F
S315080063F800C1814001C0804100C1814000C181407F
S3150800640801C0804101C0804100C1814000C181406E
S3150800641801C0804100C1814001C0804101C080415E
S3150800642800C1814000C0C101C30302C2C60607C72E
S3150800643805C5C404CC0C0DCD0FCFCE0E0ACACB0B9E
S31508006448C90908C8D81819D91BDBDA1A1EDEDF1FCE
S31508006458DD1D1CDC14D4D515D71716D6D21213D3BE
S3150800646811D1D010F03031F133F3F23236F6F7376E
S31508006478F53534F43CFCFD3DFF3F3EFEFA3A3BFB5E
S3150800648839F9F83828E8E929EB2B2AEAEE2E2FEF0E
S315080064982DEDEC2CE42425E527E7E62622E2E3237E
S315080064A8E12120E0A06061A163A3A26266A6A767AE
S315080064B8A56564A46CACAD6DAF6F6EAEAA6A6BAB1E
S315080064C869A9A86878B8B979BB7B7ABABE7E7FBF4E
S315080064D87DBDBC7CB47475B577B7B67672B2B3733E
S315080064E8B17170B0509091519353529296565797EE
S315080064F8559594549C5C5D9D5F9F9E5E5A9A9B5BDE
S3150800650899595898884849894B8B8A4A4E8E8F4F8D
S315080065188D4D4C8C448485458747468682424383FD
S3090800652841818040DF
S3090800652C350100081F
S30908006530110100083F
S31508006534AAAAAAAA050D820641032B0215017D0003
S31508006544303132333435363738393A3B3C3D3E3FC1
S3150800655402000000E803000060EA0000640000008E
S30908006564E80300003A
S30D0801AF003539345459470000A4
S3150801BB00AA5C4400800000850100009101000093B1
S3150801BB100100000000000000000000000000000015
S3150801BB20000000000000000000000000000000AD59
S3150801BB300000000000000000000000ED000000A960
S3150801BB40170000A53000009F010000A1010000A315
S3150801BB50010000A5010000A7010000A9010000AB32
S3150801BB60010000AD010000AF010000AF3C0000B3C9
S3150801BB7001000097230000B7010000B9010000BBCE
S3150801BB80010000BD010000BF010000C1010000C3A2
S3150801BB90010000C5010000C90100000348854603EC
S3150801BBA0F0AAFE00480047AB2300000080000022EF
S3150801BBB04B19680868F0C8A046A946B246BB46F0C4
S3150801BBC0C880F30988044880F3108871460D22114C
S3150801BBD0438E467047000000000000000000000286
S3150801BBE048006880F3088800DF00BF00000000EF06
S3150801BBF0F30980114B1A681038F0C044464D465671
S3150801BC00465F462038F0C01038106008B50C4880E9
S3150801BC10F3108801F059F90A4880F3108818BCA670
S3150801BC204619680868F0C8A046A946B246BB46F058
S3150801BC30C880F30988704700BF0000484200000128
S3150801BC400000000000000001B4024880F3108801DA
S3150801BC50BC70470100000001B4024880F310880156
S3150801BC60BC70470000000010B51EC824195B41527C
S3150801BC7041494110381EC01EC824195B4152414929
S3150801BC804110381EC010BD11498D46114880471113
S3150801BC90480047FEE7FEE7FEE7FEE7FEE7FEE7FEAA
S3150801BCA0E7FEE7FEE7FEE7FEE7FEE7FEE7FEE7FE5D
S3150801BCB0E7FEE7FEE7FEE7FEE7FEE7FEE7FEE7FE4D
S3150801BCC0E7FEE7FEE7FEE7FEE70000FEE700000005
S3150801BCD0800000C506000099000000F8B504210897
S3150801BCE02000F04DFC244D0024244E2746286022CE
S3150801BCF04A1420D82160436143A032801989180764
S3150801BD0074C160D8218160009000226946286800C4
S3150801BD10F03AFC641C082CEAD3F8BD38B50446157C
S3150801BD20480A466946006800F046FC002804D00027
S3150801BD309900220A604A60216038BD70B505460C33
S3150801BD4046142000F0E6FB012101744460C5600039
S3150801BD50218460016070BD08B50090017C0029024C
S3150801BD60D000F0E8FB08BD034800226946006800D8
S3150801BD70F00AFC08BD0000344200005C4400007073
S3150801BD80B5040015460AD0002D08D0002908D0218F
S3150801BD906025810020A080E080012070BD00207010
S3150801BDA0BD104600F0B6FB20600028F1D170BD70C9
S3150801BDB0B5044600880B46421C95B24A1E258013D7
S3150801BDC04207D003F02AFD0846002D01D1411C2166
S3150801BDD08070BD104070BD10B504468088E1888822
S3150801BDE04201D1002010BD2189201DFFF7E0FF2166
S3150801BDF068085C10BDF8B505460E461746002405C9
S3150801BE00E02846FFF7E8FF3055641CA4B2BC42039C
S3150801BE10D2A888E9888842F3D12046F8BD70B504CE
S3150801BE20460D46012080F31088E088A188401A2132
S3150801BE3089884202DB201DFFF7BAFF002080F31034
S3150801BE40882189A01DFFF7B3FF21680D5470BD70C5
S3150801BE50B506460D46144604E029786D1C3046FFA2
S3150801BE60F7DDFF2046641EA4B20028F5D170BDF89F
S3150801BE70B50D4616461F4600F0E6F8002813D08190
S3150801BE80680A0CAA4201D80520F8BD8AB2554300B2
S3150801BE902404E04168495D3155641C6D1C9442F8DF
S3150801BEA0D300203A60F8BD0320F8BD70B50C4615DD
S3150801BEB04600F0C9F8002817D08178002901D00179
S3150801BEC02070BD81680A0CA24201D8052070BD8A7E
S3150801BED0B25443002304E0E95C46685B1C315564AF
S3150801BEE01C9342F8D3002070BD032070BD70B50CB9
S3150801BEF046154600F0A8F8002812D00269002A0360
S3150801BF00D029462046904770BD002103E042685279
S3150801BF105C6254491C82688A42F8D80020296070FC
S3150801BF20BD032070BD10B50C4600F08DF802001F48
S3150801BF30D09078002801D0012010BDD168002902CF
S3150801BF40D02046884710BD9068022801D000200AF3
S3150801BF50E060782178000240185168088006E053AD
S3150801BF6068215C1954401C91688142F8D800201058
S3150801BF70BD032010BDF8B5044603C8091A032901F3
S3150801BF80D2022153E0E26811188B784D781B025BC7
S3150801BF9019105C9DB2002816D0012805D002283751
S3150801BFA0D003281BD0042141E0C91C2846FFF7BA53
S3150801BFB0FF00283AD12168E0686A464118C91C2859
S3150801BFC046FFF794FF1FE0C91C6A462846FFF78E0D
S3150801BFD0FF29E0606800994018606014E00879CA92
S3150801BFE0780002801886B24A1D31462846FFF75D59
S3150801BFF0FF00281AD12168E0686B464218521D31A4
S3150801C000462846FFF734FF2146012000F02CF81098
S3150801C010E00879CA780002801880B24A1D01466B89
S3150801C020462846FFF724FF0028D3D0014601200001
S3150801C030F07FF82046FFF78FFEF8BD10B5084901D5
S3150801C0402000F02FF810BD0146064803E002888A51
S3150801C0504204D014308268002AF8D1002070477350
S3150801C060040000D83E000070B505463B480E463B25
S3150801C0704C0168E06800F03EFA3A480268002A0274
S3150801C080D0314628469047E06800F019FA70BD108D
S3150801C090B5044601460020FFF7E6FF2046FFF75B99
S3150801C0A0FE10BD70B504000E4605D02C4D2A680554
S3150801C0B0E01078A04201D1002070BD9268002AF7ED
S3150801C0C0D10C2000F026FA047046602968816028A0
S3150801C0D060012070BD1FB5214C224D606810228376
S3150801C0E0696946A0689847010005D0AA68002AF43C
S3150801C0F0D068469047F1E7002000F093FAEDE71C77
S3150801C100B5184A80230C32019300920123002215A7
S3150801C110A1164800F06AFA15490020FFF7C2FF0088
S3150801C120F0C0F90E49C8601CBD0D4A916050607097
S3150801C1304770B5054609480E46094C0168E068008E
S3150801C140F0D9F907484268002A02D03146284690B4
S3150801C15047E06800F0B4F970BD0000503E000038B1
S3150801C160420000BC4B000055490000D30500008D74
S3150801C170050000F0B5FFB0FFB082B0174D00236F80
S3150801C180461A460024D60702D052086A4000E052F1
S3150801C19008641C082CF6D39C005B1C3A51FF2BEF54
S3150801C1A0D90023DB43002207E0845C5C402406A413
S3150801C1B00D3C591B0A6340521C8A42F5D37FB07F56
S3150801C1C0B0D84302B0F0BD00B505490020FFF7D14C
S3150801C1D0FF03490A689042FCD100BD2083B8ED5897
S3150801C1E044000001218140384801607047012181DE
S3150801C1F04036488030016070473549096801228216
S3150801C20040114201D0012070470020704701218169
S3150801C210402F4801607047012181402C4880300138
S3150801C22060704700202A49C04380310860704783FF
S3150801C23007FF22DB0E9A408907090E994000280B51
S3150801C240DA0007000F0838830822489B001818C32C
S3150801C2506993430B43C361704783081E489B0018C3
S3150801C26018036893430B43036070478107C90E009F
S3150801C2702808DA0007000F08388008154A80008068
S3150801C28018C06904E08008134A800080180068C84D
S3150801C2904080097047114910B5884201D90120101B
S3150801C2A0BD0002000A0E4C401E60610321081FFFF3
S3150801C2B0F7BEFF0020A06107202061002010BD0401
S3150801C2C0490848C860BFF3408FFEE700E100E00077
S3150801C2D0E200E000ED00E000E400E0FFFFFF0000FF
S3150801C2E0E000E00400FA0510B500210846FFF79FB3
S3150801C2F0FF01210620FFF79BFF02210120FFF79787
S3150801C300FF02210846FFF793FF02210320FFF78F5B
S3150801C310FF02210420FFF78BFF02210520FFF78783
S3150801C320FF02210720FFF783FF02210820FFF77F7D
S3150801C330FF02210920FFF77BFF00210A20FFF7777B
S3150801C340FF02210B20FFF773FF01210C20FFF76F76
S3150801C350FF02210D20FFF76BFF02210E20FFF76771
S3150801C360FF02210F20FFF763FF02211020FFF75F6D
S3150801C370FF02211120FFF75BFF02211220FFF75769
S3150801C380FF02211320FFF753FF02211420FFF74F65
S3150801C390FF02211520FFF74BFF412109060868C056
S3150801C3A0229043FF2201321043086010BD0000109D
S3150801C3B0B5038803F0B2FA06060404070C12064010
S3150801C3C068804710BD816842680846904710BD825B
S3150801C3D0684368C1681046984710BD836844680277
S3150801C3E069C1681846A04710BD4168083008478CDE
S3150801C3F0B02B4C064602AD69463046226800F0DB92
S3150801C400F80028F8D068460088062803D06846FF51
S3150801C410F7CEFFF0E7019928468847ECE710B504FF
S3150801C4204640688CB0002817D0A268002A14D0228A
S3150801C43068019000926846008806280FD0002905F1
S3150801C440D04A68086889680392049102901449A041
S3150801C450680A68694600F097F80CB010BD096824A7
S3150801C4602202A803F016FAF1E710B54468002C0871
S3150801C470D0038803F052FA07060505070A0E0706D0
S3150801C48000A04710BD0868A04710BD05C91146A000
S3150801C4904710BD4B688A6808681946A04710BD5001
S3150801C4A03E000010B50021012000F01BF90400042C
S3150801C4B0D000231A46194600F0AAF9204610BD38BD
S3150801C4C0B500280FD01249496889060CD000236A9D
S3150801C4D046194600F02AFA0099C4B2002901D0008B
S3150801C4E0F0CEFE204638BD00231A46194600F08FC5
S3150801C4F0F9C0B238BD10B5002807D0044B5A6800F8
S3150801C500230A46194600F04BFAC0B210BD000000D6
S3150801C510ED00E010B500F0DBFE10BD10B504464C89
S3150801C52043204600F0D4FE002803D022460021030A
S3150801C530F0CBF910BD10B500F0E6FE10BD10B50040
S3150801C540F0E7FE10BD000010B500F0CDF910BD10E2
S3150801C550B5002805D000231A46194600F058F9C037
S3150801C560B210BD10B5002807D0044B5A6800230A3B
S3150801C57046194600F014FAC0B210BD00ED00E010ED
S3150801C580B500F0AFF810BD38B500280ED0164B5BD4
S3150801C590689B060BD000236A4600F0C7F90099C4C8
S3150801C5A0B2002901D000F06BFE204638BD002300F9
S3150801C5B0F02EF9C0B238BD38B500280DD00A4B5B4C
S3150801C5C0689B060AD06A4600F075FA0099C4B2005B
S3150801C5D02901D000F054FE204638BD002300F0DFC3
S3150801C5E0F9C0B238BD000000ED00E0F0B585B00431
S3150801C5F046184600230D461646039304A90B9F0ABF
S3150801C6009A6B4607C3BAB233462946204600F09DBF
S3150801C610FA002800D0049805B0F0BD10B500F02F37
S3150801C620FE10BD70B50546002000F0FFFB044685E7
S3150801C630420AD22946002000F005FC00F020FE211E
S3150801C64046002000F0FFFB70BD00F019FE70BD101A
S3150801C650B500F0D5FB10BD014608310022D2438250
S3150801C660604160C1600161002101607047002101DC
S3150801C670617047426853684B6043688B6053689999
S3150801C680605160416008610168491C01607047108A
S3150801C690B50B685A1C02D00246083202E002690448
S3150801C6A0E05268546824689C42FAD953684B6099E9
S3150801C6B0608A60516008610168491C016010BD41CA
S3150801C6C06882688A6082684168516001694A68823D
S3150801C6D04201D182684A60002202610868401E0848
S3150801C6E0607047F8B5002705460E46002829D04C44
S3150801C6F02000F0EDFD040024D02846704300904048
S3150801C7001C00F0E5FD2060002818D0009941186149
S3150801C710600021A163A060691E714326644018E583
S3150801C72063E060781E6064A06420461030FFF793CA
S3150801C730FF20462430FFF78FFF274602E0204600F8
S3150801C740F0E2FD3846F8BD70B5044600F09DFD25BA
S3150801C750462435A06C0CE0606A00280BD0284600F8
S3150801C760F0BFFC002801D000F00DFDA06C401EA012
S3150801C770640028F0DC0025ED43A56400F08DFD007A
S3150801C780F083FD26461036606C0CE0206900280B04
S3150801C790D0304600F0A5FC002801D000F0F3FC607B
S3150801C7A06C401E60640028F0DC656400F075FD705D
S3150801C7B0BD10B504461046226C002A12D00028196D
S3150801C7C0D0E06803F066F8E168206C091AE1602296
S3150801C7D068914202D26168081AE060A06B401CA009
S3150801C7E06310BD20680028F8D1606800F0FDFC00E0
S3150801C7F0206060F2E7A06803F04CF8216CA068405D
S3150801C80018A06061688842E8D32068A060E5E7FF60
S3150801C810B5002683B00446374600F036FDA06BE125
S3150801C8206B884214D22046069A0499FFF7C1FF6025
S3150801C8306A002807D02046243000F052FC0128015E
S3150801C840D100F01DFD00F028FD012007B0F0BD055F
S3150801C85098002802D0002E03D006E000F01DFD1E28
S3150801C860E0684600F065FC012600F016FD00F0C2FE
S3150801C870FA00F00AFD606C401C00D16764A06C40A8
S3150801C8801C00D1A76400F008FD05A9684600F0560A
S3150801C890FC002806D02046FFF756FF00F049FA00AB
S3150801C8A020D3E700F0F1FCA06BE16B884201D101CE
S3150801C8B02500E0002500F0F0FC002D0ED0204610E2
S3150801C8C030059900F0F4FB2046FFF73DFF00F030F4
S3150801C8D0FA0028A1D100F0D3FC9EE72046FFF733E2
S3150801C8E0FF00F026FA98E710B54C2000F0F0FC049A
S3150801C8F00019D0002060602060A060E060A063019C
S3150801C90021E1632064401E6064A06420461030FF64
S3150801C910F7A2FE20462430FFF79EFE00231A461989
S3150801C920462046FFF774FF204610BDF8B504460FAA
S3150801C9304615461E46FFF787F9A06BE16B88421735
S3150801C940D2324639462046FFF733FFA06C411C0315
S3150801C950D0401CA06401240CE0606A0028FAD020AB
S3150801C96046243000F0BDFB0028F4D001202860F1F0
S3150801C970E70024FFF770F92046F8BD70B504680D85
S3150801C98046002C0BD0026CC1688B18C36041688BBA
S3150801C9904200D3C460C168284602F07BFF70BDFF20
S3150801C9A0B5044683B0002624303746029000F06C61
S3150801C9B0FCA06B002829D0E56820460499FFF7DD1D
S3150801C9C0FF069800280ED0E560606A002806D002A6
S3150801C9D09800F086FB002801D000F051FC00F05CBD
S3150801C9E0FC012032E7A06B401EA0632068002802E4
S3150801C9F0D100F0CCFB606020690028EFD0204610FA
S3150801CA003000F06EFB0128E7D0E8E7059800280218
S3150801CA10D0002E03D006E000F03FFC1EE068460079
S3150801CA20F087FB012600F038FC00F0E4F900F02C51
S3150801CA30FC606C401C00D16764A06C401C00D1A747
S3150801CA406400F02AFC05A9684600F078FB00280670
S3150801CA50D02046FFF778FE00F06BF90020F5E600D6
S3150801CA60F013FCA06B002808D0002500F015FC0087
S3150801CA702D1AD02068002802D008E00125F5E70024
S3150801CA80F003FC606800F085FB00F006FC059902DE
S3150801CA909800F00DFB2046FFF756FE00F049F90015
S3150801CAA02884D100F0ECFB81E72046FFF74CFE0015
S3150801CAB0F03FF97BE770B504460E461546FFF7C306
S3150801CAC0F8A06B002819D031462046FFF756FFA07B
S3150801CAD06B401EA063606C411C03D0401C6064015E
S3150801CAE0240CE020690028FAD02046103000F0F81E
S3150801CAF0FA0028F4D001202860F1E70024FFF7ABFB
S3150801CB00F8204670BD10B5044600F0BEFBA46B00C4
S3150801CB10F0C3FB204610BD806B704710B504460074
S3150801CB206800F0F1FB204600F0EEFB10BD806B00BB
S3150801CB302801D00020704701207047816BC06B81A6
S3150801CB404201D10120704700207047FFB581B01519
S3150801CB504640200A9F0C9E00F0BAFBAD0004460031
S3150801CB60280BD0300002D1284600F0B1FB20630023
S3150801CB70283CD0A522294602F09EFE002C7ED02014
S3150801CB806B2D1F401985082046AD003E4608223404
S3150801CB9030029902F0A3FE00213B200155042E0024
S3150801CBA0D30326E662201DE663FFF760FD204618DB
S3150801CBB030FFF75CFD0420801B2461A061646228B4
S3150801CBC046049A019900F039FB20600B9800280069
S3150801CBD0D0046000F059FBFF4E7068401C7060304D
S3150801CBE068002808D07069002829D02DE020460061
S3150801CBF0F08AFB0024C1E734607068012824D1005B
S3150801CC00251420F54968434018FFF725FD6D1C04D6
S3150801CC102DF6D3F1485030FFF71EFDEF486430FF7B
S3150801CC20F71AFDED487830FFF716FDEB488C30FF13
S3150801CC30F712FDE948503030631430706304E03070
S3150801CC4068C06AB84200D83460E06AF16888420070
S3150801CC50D9F060B16A491CB1623169884200D9309C
S3150801CC606114214843DD494018211DFFF702FD01E2
S3150801CC702400F012FB7069002807D000E008E030B4
S3150801CC8068C06AB84201D200F0FAFA204605B0F047
S3150801CC90BD0024E443F9E7F8B5CF4DA86900280398
S3150801CCA0D0E869401CE861F8BDA868401CA860A8DE
S3150801CCB0680026F64300280FD1286B696B2963683B
S3150801CCC063686A401C6862286B0068002816D028C9
S3150801CCD06BC068C0684068E862A868E96A8842E289
S3150801CCE0D3BE4F286B006800280AD0286BC068C4D9
S3150801CCF068A9686068814205D2E862F8BDEE62EB10
S3150801CD00E7EE62F8BD201DFFF7DAFCA06A002803EA
S3150801CD10D020461830FFF7D3FCE06A29698842001B
S3150801CD20D9286114214843C019211DFFF7A2FCD84F
S3150801CD30E7F8B5002700F0A8FAA74DA869401EA88C
S3150801CD4061A86900283BD16868002838D000261AEE
S3150801CD50E0C068C46820461830FFF7B1FC201DFF03
S3150801CD60F7AEFCE06A2969884200D928611421488E
S3150801CD70439A494018211DFFF77CFCE06A2968C9D6
S3150801CD806A884200D301269448783001680029DF71
S3150801CD90D1E869002805D108E0FFF77DFFE8694079
S3150801CDA01EE861E8690028F7D104E0012E02D028BF
S3150801CDB06A012804D100200127286200F060FA00E0
S3150801CDC0F06BFA3846F8BD70B5834D0446286844B9
S3150801CDD060A8682968844204D2091D686BFFF75761
S3150801CDE0FC70BD091D286BFFF752FCE86A8442F7FF
S3150801CDF0D2EC6270BD78488169491C81617047101F
S3150801CE00B502000FD0FFF7F6FF7348816800688CFA
S3150801CE1018001DFFF754FC2046FFF7D5FFFFF788DA
S3150801CE20FF002801D100F02BFA10BD10B504460009
S3150801CE30F02BFA002C01D167480468E46A00F02C4B
S3150801CE40FA204610BDF8B5002706460D4604290006
S3150801CE50D3032500F019FA5F480068864200D1001D
S3150801CE6026340001D15C480468E06BA84229D085C4
S3150801CE704202D9002E02D102E0002E00D10127E29A
S3150801CE806A904200D1E5620421491BE563A1611458
S3150801CE9022524D50436169401981420ED1201DFF2E
S3150801CEA0F70EFC4C49E06A0A69904200D9086114F8
S3150801CEB02148434019211DFFF7DCFB012F01D10051
S3150801CEC0F0DEF900F0E9F9F8BD43498A69434800FB
S3150801CED02A04D0012008627047521E0A610A6914A1
S3150801CEE0235A438258002A0A69F6D05A431018422F
S3150801CEF06852680346083342609A4201D152684231
S3150801CF0060D0680860704770B5054600F0BDF93114
S3150801CF104E3068854200D100252C0000D1346820A6
S3150801CF201DFFF7CDFBA06A002803D020461830FF65
S3150801CF30F7C6FB2948211D8C30FFF79BFB00F0AC97
S3150801CF40F9002D04D17069002802D000F098F97013
S3150801CF50BD22488C3000687168884202D1002030B1
S3150801CF606070BDFFF7B1FF70BD1C4B426900218C93
S3150801CF70339A4207D1806A1A46143A904202D0007F
S3150801CF802800D101210846704770B5040022D01146
S3150801CF904D286884421ED000F077F92046FFF7E451
S3150801CFA0FF012815D1201DFFF78AFBE06A29698848
S3150801CFB04200D928611421484308494018211DFF18
S3150801CFC0F758FBE06A2968C96A884201D300F05715
S3150801CFD0F900F062F970BD48420000C84D000070C2
S3150801CFE0B504460025FFF7C0FF01281FD18E4EB0B4
S3150801CFF069002803D0214618318C4815E0E06A31CA
S3150801D00068C96A884201D3012500E00025201DFF71
S3150801D010F756FBE06A3169884200D9306114214824
S3150801D02043824978394018211DFFF723FB2846D149
S3150801D030E77E4C783C2068012801D900F020F900E8
S3150801D040F030FFF7E71FB5002300930193029340E1
S3150801D0502277A178480393FFF778FD012808D1FEC6
S3150801D060F7F2FD7048012141610021816000F0F16C
S3150801D070F81FBD10B5FEF7E7FD6B490020486100B2
S3150801D080F0FDF810BD10B500F0FFF8664884680099
S3150801D090F003F9204610BD10B5FEF7D5FD624884A8
S3150801D0A068FEF7D9FD204610BD5F48406870477095
S3150801D0B0B55D4C0D4621681831FFF7E9FA2068007D
S3150801D0C01DFFF7FDFA681C04D0A0684019FFF77B1D
S3150801D0D0FE80E721685548091D1430FFF7CAFA7919
S3150801D0E0E770B5C068C468204618300646FFF7E7FA
S3150801D0F0FA4D4DA869002802D031464B480DE0206B
S3150801D1001DFFF7DDFAE06A2969884200D92861140A
S3150801D110214843454978394018211DFFF7AAFAE005
S3150801D1206A2968C96A884201D3012053E700205158
S3150801D130E73D494A6A026089684160704770B504EB
S3150801D140460D4600F0A1F82868411C14D03649223C
S3150801D150684B6A9A4203D062688B689A420DD96213
S3150801D160688B689B1A834208D28968891A401A28EB
S3150801D170602046FFF7DDFF002400E0012400F08C63
S3150801D180F8204627E7284901200862704726480003
S3150801D19068704770B5244D0446C06A2968C96A880B
S3150801D1A0421DD228680421C06A204E081AA061E0EF
S3150801D1B06A14225043783E61698019814210D12050
S3150801D1C01DFFF77DFA2868C06AE06229698842006E
S3150801D1D0D92861142148438019211DFFF74AFAF914
S3150801D1E0E62868C06AE062F5E610B5040019D0E1E0
S3150801D1F06BE06A884215D0201DFFF761FAE06B04DF
S3150801D20021E062081AA0610749E06A0A69904200AA
S3150801D210D9086114214843044978394018211DFF6A
S3150801D220F728FA10BD000048420000404E000049A8
S3150801D230444C45000000002F15000001231B06037E
S3150801D24060031F1960083800210160143802602044
S3150801D25038704710B50321081FFEF7E9FF03214877
S3150801D2601FFEF7E5FF1748FFF715F81649002008CE
S3150801D27060FEF7F1FCFEF7B3FC002010BD70470114
S3150801D28020124900074860704710B5FEF7DCFC0D0F
S3150801D290480168491C016010BD10B50A4908684073
S3150801D2A01E086001D1FEF7D7FC10BD10B501200696
S3150801D2B04900074860FEF7C7FCFFF7EDFCFEF7CB10
S3150801D2C0FC10BD80BB00008042000000ED00E0704C
S3150801D2D0B504460025800704D0A007800F0421085D
S3150801D2E01A0419FFF787FD0D4A092310689B0201E5
S3150801D2F019994204D2814202D90A4B11601D18FFBD
S3150801D300F717FD284670BD7047054900200860706B
S3150801D310470348092100688902081A7047000084F2
S3150801D320420000684E000010B504461C20FFF7F1C4
S3150801D330F800280CD0734920600A69426008610028
S3150801D3402101704173816040221030FEF718FD10EB
S3150801D350BDF8B50D4689688160297B04460173804D
S3150801D360680321C160A068C16880263143C1606530
S3150801D3704F2968384602F051FAC1B2A068016038EF
S3150801D38046296802F04AFA010AA0684160A068C104
S3150801D39068B143C160A0688168012211438160A018
S3150801D3A0688168042319438160A06881680223198A
S3150801D3B0438160A0688168C026B14380318160A03D
S3150801D3C06841681143416029796173022903D1A033
S3150801D3D068016919430161A0688168C161A0684152
S3150801D3E069C161A0688169C16122700C202056FE5D
S3150801D3F0F712FF0C202056FEF7F4FE0120F8BD10A7
S3150801D400B504460C202056FEF7F1FE0020207010C8
S3150801D410BD10B50378002B04D092B21030FEF7EA9E
S3150801D420FC10BD002010BDF8B5044637480E46402D
S3150801D430681746002580063ED1607B012808D1A0E1
S3150801D440680169022211430161A0688169C906FC64
S3150801D450D5607B02281DD1A068016902229143018A
S3150801D46061A0688169C906FCD513E0A06840698096
S3150801D470060CD5102007E03178A268761C116040A9
S3150801D4801E6D1C002805D0BD4203D2F4E70020FF1B
S3150801D490F7C8F8BD42E9D3607B012804D1A0680228
S3150801D4A06902218A430261607B022804D1A06801CE
S3150801D4B069022211430161F8BD70B504468068000E
S3150801D4C007430F02F02AFA071B1A16051A1A161A23
S3150801D4D000606914E02068C1B2286907E08268A281
S3150801D4E04203D11030FEF79AFC04E0406800280197
S3150801D4F0D0F4E7034D6069C007ECD170BDA069E0BF
S3150801D5006170BD88420000C0C62D0000ED00E01024
S3150801D510B504461020FEF7FDFF002807D01949205B
S3150801D520600A694260086100210170012010BD0A84
S3150801D530688260097901731146126860231A430AE1
S3150801D54060017B104A51438268090A916081680A21
S3150801D5506880231A430A6001210170084670470151
S3150801D56078002906D081680A6880239A430A6000F0
S3150801D57021017070470178002902D0806801214194
S3150801D580607047AC42000080BB0000212149068A31
S3150801D59068FF231B019A43000102438A60886800D9
S3150801D5A005000D70472121028849068A600288898B
S3150801D5B06851400907090F0D2906D2044B4900593C
S3150801D5C05A4A4002800120704700207047000054E3
S3150801D5D03E0000F8B5FEF7B7FFF84E012570606802
S3150801D5E046058069466802FEF79DFCF449684601CE
S3150801D5F0806946F348FEF796FCF34968460180F0D0
S3150801D600486946001DFEF78EFC03216846018069BC
S3150801D61046EE48FEF787FC68460580E94869460EE6
S3150801D62030FEF780FC002468460480E54869460D0B
S3150801D63030FEF778FC684604806946E448FEF772CE
S3150801D640FC68460580E2486946801EFEF76BFC6861
S3150801D650460480DE486946401EFEF764FC302168B0
S3150801D660460180552069460002FEF75CFC684604BF
S3150801D67080D6486946C01EFEF755FC412000064083
S3150801D680688006400F3070F8BD10B50C46CB4920AE
S3150801D690220C3102F0FEF820202060002010BD0186
S3150801D6A046C64810B520220C3002F0F3F8002010C7
S3150801D6B0BD10B50C46C1491822483102F0EAF818DE
S3150801D6C0202060002010BD10B50C46BB4918226009
S3150801D6D03102F0DFF818202060002010BD10B500D7
S3150801D6E078012801D9062010BDB44B083319788171
S3150801D6F04218D00B21C9060A692024A2430A6100EF
S3150801D700280FD00A6922430A610A69D206D20E5441
S3150801D7100012190B3292060C69D20E6409640114BF
S3150801D720430C611870002010BD0078012801D90644
S3150801D730207047A14908314A78824213D04870A41B
S3150801D74049002807D0A448A44A006848610A610824
S3150801D75062A34806E0A348A34A006848610A61082B
S3150801D76062A248C8610020704710B541780078095F
S3150801D770020818914980B208314A88824204D04881
S3150801D7808000219A48FEF74AFE002010BD10B58A8E
S3150801D790484068FEF7DCFE10BD10B595480168865D
S3150801D7A0484068FEF7DEFE10BD10B5FFF7F5FF82AB
S3150801D7B048002108308162C1620163FFF7E7FF0073
S3150801D7C02010BD70B505460C46FFF7E6FF7B4808F5
S3150801D7D030826AC06A11188A4201D90021C94328D0
S3150801D7E04600F02CFB04202060FFF7D0FF002070D4
S3150801D7F0BD10B5FFF7D1FF7049002008318862FFD7
S3150801D800F7C5FF002010BD70B505460C46FFF7C4E5
S3150801D810FF6A480830816A284600F010FB04202078
S3150801D82060FFF7B4FF002070BD10B5FFF7B5FF62C2
S3150801D8304900200831C862FFF7A9FF002010BD7012
S3150801D840B505460C46FFF7A8FF5C480830C16A28AB
S3150801D8504600F0F4FA04202060FFF798FF002070D4
S3150801D860BD10B5FFF799FF5449002008310863FF39
S3150801D870F78DFF002010BD70B505460C46FFF78CE5
S3150801D880FF4E480830016B284600F0D8FA042020DC
S3150801D89060FFF77CFF002070BD10B5FFF77DFF46DE
S3150801D8A048002108304163C1638163FFF76FFF00B8
S3150801D8B02010BD70B505460C46FFF76EFF3F4808B8
S3150801D8C030426BC06B11188A4201D90021C943281D
S3150801D8D04600F0B4FA04202060FFF758FF002070D4
S3150801D8E0BD10B5FFF759FF3449002008314863FFD9
S3150801D8F0F74DFF002010BD70B505460C46FFF74CE5
S3150801D900FF2E480830416B284600F098FA0420207B
S3150801D91060FFF73CFF002070BD10B5FFF73DFF26FD
S3150801D92049002008318863FFF731FF002010BD70D8
S3150801D930B505460C46FFF730FF20480830816B28AD
S3150801D9404600F07CFA04202060FFF720FF002070D3
S3150801D950BD10B5FFF721FF184900200831C863FF3C
S3150801D960F715FF002010BD70B505460C46FFF714E4
S3150801D970FF12480830C16B284600F060FA042020DF
S3150801D98060FFF704FF002070BD0078012833D841F5
S3150801D9902109060A68D207D20F82420CD00A6812F8
S3150801D9A007520F01D0012070470A68C00752085272
S3150801D9B000C00F02430A6000207047C44200009B62
S3150801D9C0150000085800004B190000054100000722
S3150801D9D05400008043000070430000F73100002F17
S3150801D9E032000008440000AF370000A136000030BD
S3150801D9F0440000503E0000062070474122120612DC
S3150801DA0068D207D20F027001200860002070470013
S3150801DA1078012815D8412109060A681207520F828A
S3150801DA20420CD00A681207520F01D0012070470A2A
S3150801DA30680E2340079A43000F02430A60002070CC
S3150801DA4047062070474122120612681207520F0232
S3150801DA507001200860002070470078042815D84115
S3150801DA602109064A685207520F82420CD00A6812E7
S3150801DA7007520F01D0012070474A684007D208D2E1
S3150801DA8000400F02434A6000207047062070474154
S3150801DA9022120652685207520F02700120086000CE
S3150801DAA020704710B50078042808D8E7490A789005
S3150801DAB04202D0087001F0D8F8002010BD062010E7
S3150801DAC0BDE24A1278027001200860002070470002
S3150801DAD07807280AD80B21C9064A694007D208D20D
S3150801DAE000400F02434A6100207047062070470B29
S3150801DAF022D20652695207520F02700120086000AD
S3150801DB00207047007801280AD80B22D206516908E5
S3150801DB1023C0079943000F0143516100207047064E
S3150801DB202070470B22D20652690270012008600054
S3150801DB302070470B210078C90648610020704741CB
S3150801DB40780078090208180B21C906886000207038
S3150801DB504741780078090208180B21C906C86000F0
S3150801DB602070474178007809020818592109068862
S3150801DB706000207047417800780902081859210980
S3150801DB8006C860002070470B22D20652691207D2D6
S3150801DB900F027001200860002070470B22D20692FE
S3150801DBA0680270120A427002200860002070470B52
S3150801DBB022D206D2680270120A4270022008600058
S3150801DBC02070475922120692680270120A427002A0
S3150801DBD02008600020704759221206D26802701286
S3150801DBE00A427002200860002070474178007809CF
S3150801DBF002081855210906086000207047552212A7
S3150801DC000612680270120A4270022008600020702B
S3150801DC10471522920652685207D20F027001200850
S3150801DC206000207047007801280AD815229206510B
S3150801DC30680823C0079943000F014351600020700B
S3150801DC4047062070471522920652681207D20F021C
S3150801DC507001200860002070471521890600784A5E
S3150801DC6068120711D507280DD84A689205520F82FE
S3150801DC704208D34A68702340079A43400E02434A32
S3150801DC8060002070470620704701207047152292D0
S3150801DC900652685206520F02700120086000207071
S3150801DCA047007807280BD81522920651680723DB07
S3150801DCB00140079943800D014351600020704706D2
S3150801DCC02070471522920652689205520F0270017A
S3150801DCD020086000207047172292061268D207D2E0
S3150801DCE00F02700120086000207047412212065277
S3150801DCF068027001200860002070470078410749D2
S3150801DD000F042911D88106490F04290DD841210983
S3150801DD10064A68824206D00A681207520F01D001E4
S3150801DD202070474860002070470620704700780138
S3150801DD302816D8412109060A689205D20F82420D92
S3150801DD40D00A681207520F01D0012070470A6801EC
S3150801DD50235B02C0079A43800D02430A60002070C4
S3150801DD6047062070474122120612689205D20F0211
S3150801DD707001200860002070470078012816D841F4
S3150801DD802109060A685205D20F82420DD00A681285
S3150801DD9007520F01D0012070470A6801239B02C070
S3150801DDA0079A43400D02430A600020704706207017
S3150801DDB0474122120612685205D20F027001200845
S3150801DDC060002070470078012818D8212149060AE1
S3150801DDD0685200D20F82420FD041221206126812EF
S3150801DDE007520F01D0012070470A6801239B07C01B
S3150801DDF0079A43400802430A6000207047062070CC
S3150801DE00472122520612685200D20F0270012008D9
S3150801DE1060002070470078012801D9062070470A5A
S3150801DE204968310874002070470078012801D9062D
S3150801DE3020704705496831487400207047002281DF
S3150801DE4054521C090A042AFADB7047C4420000012D
S3150801DE502484F310885D2000068168A1438160410E
S3150801DE606821434160002585F3108841263606FF5F
S3150801DE7027F53784F31088012000F046FA85F31058
S3150801DE808830680007400F05D00128F2D1FA20FE34
S3150801DE90F7DEFBEEE73846FAE710B53A48FFF70C26
S3150801DEA0FB10BD3948416939484068084730B538DB
S3150801DEB04889B042680168079206910369C2688178
S3150801DEC068406902AC0EC405905320000641688972
S3150801DED00707D040688107890F491E4B20C0018872
S3150801DEE0400290412000060168C0229143FF2201A9
S3150801DEF03211430160FEF7F7F900F07FF8FDF7EDFF
S3150801DF00FE224C22482168001D88476268204C067B
S3150801DF10A9606890472120400601688201114301E2
S3150801DF20601D4D2046296888476A6802A9206890BD
S3150801DF3047FEF7E5F800F0B6F928462168FEF7F43A
S3150801DF40F8FEF77BF8FFF745FB00F019FA01F0D068
S3150801DF50F900F0CCFE01F09FFA104810490068104C
S3150801DF604A48610A6108620F48C8614023002201D4
S3150801DF7093009213460DA10E48FEF737FBFFF76291
S3150801DF80F8002009B030BD00010053AC4200004042
S3150801DF90430000703E000088420000084400000C5F
S3150801DFA0440000A1390000D9390000424C494E4BC2
S3150801DFB00000004D23000010B501680446C26848F8
S3150801DFC01C2060515C002907D000210620FEF7B00D
S3150801DFD0F82046FDF7C0FE10BD411C2160105C000B
S3150801DFE02804D00128F4D1FEF76AF9F1E7002105E2
S3150801DFF02000078160FF214160EAE710B502490662
S3150801E00020FEF74FF810BDB52400000B881A0A1B2D
S3150801E010021A4342401006000F42401003424010C4
S3150801E02006C00C42400A807047F3B581B00025A1AD
S3150801E0304E49E00198425D7D2A11D071781046005B
S3150801E0402903D02021484000217170B1780029099F
S3150801E050D0012914D0022919D0032933D11CE00192
S3150801E0602070702FE07E2A2DD194480168924808C5
S3150801E07030FDF753FE0120B070801EB08022E08D7E
S3150801E080493070091DFFF7C1FF02201AE08A4909C4
S3150801E0901DFFF7BBFF032014E07E2A18D0B1684A9A
S3150801E0A068CC68531C4B60A054B06841688068818D
S3150801E0B04208D102210020FEF73BF8B068FDF74B74
S3150801E0C0FE0020B0706D1C02988542B2D3FEBDB029
S3150801E0D0684168022934D3891E41603746046806B7
S3150801E0E0E0C0687449005D091DFFF78FFF641CB81D
S3150801E0F0684168A142F4D8C2684168535C5118491D
S3150801E10078BA8809025918914218D16C490C6839AC
S3150801E1107808E022788A4204D161688847002C038E
S3150801E120D009E0A468002CF4D101210020FEF700F3
S3150801E130F8B868FDF710FE0020B070B5E70321F4C2
S3150801E140E702210020FDF7F4FFB068F2E770B50495
S3150801E15046164600290AD07E2C01D07D2C06D10010
S3150801E1602211467D20FFF7F2FF20204440524D54EC
S3150801E17049E8780C54401CC2B2EA70002E01D1104D
S3150801E1802A08D150484F490068C3694F4800689822
S3150801E190470020E87070BD38B505460022D24368AD
S3150801E1A04602800C46002211467E20FFF7CFFF6902
S3150801E1B0462846FFF72AFF002201212846FFF7C60F
S3150801E1C0FF69460020FFF721FF002211461046FF8E
S3150801E1D0F7BDFF6946FF20FFF718FF00221146FF2A
S3150801E1E020FFF7B4FF69462046FFF70FFF0022011B
S3150801E1F0212046FFF7ABFF684600880022C0B2011E
S3150801E20021FFF7A4FF684600880022000A0121FFC2
S3150801E210F79DFF012200217E20FFF798FF38BD38C0
S3150801E220B50D4604460021C94368460180002211FE
S3150801E230467E20FFF78BFF69462046FFF7E6FE007C
S3150801E2402201212046FFF782FF69460020FFF7DDFC
S3150801E250FE002211461046FFF779FF2C680BE0E80D
S3150801E260686946005DFFF7D1FEE8680022005D0196
S3150801E27021FFF76CFF641C6868A042F0D868460065
S3150801E280880022C0B20121FFF761FF6846008800B5
S3150801E29022000A0121FFF75AFF012200217E20FFF1
S3150801E2A0F755FF38BD0B48094901600A4941600A1B
S3150801E2B04981607047000048430000503E0000381D
S3150801E2C0420000687200003C420000404200001D06
S3150801E2D0270000BC4B000095260000272500001CDE
S3150801E2E04B00291A8801D0024300E082435D211AB6
S3150801E2F08090B209060860704716490988014201EB
S3150801E300D00120704700207047124A1188414011F8
S3150801E310805D2212061160EFE75D21090609680191
S3150801E3204201D001207047002070475D2212060085
S3150801E33029516801D0014300E08143516070475D6E
S3150801E3402212060029916801D0014300E081439118
S3150801E3506070475443000038B5FD48FE4C406800DC
S3150801E36090FC4869464268E06990470020FDF753EA
S3150801E370FF0020FDF736FFA069FEF739F838BD7CA6
S3150801E380B5F44CF44821681C308847F248216820C6
S3150801E39030884714210320FEF7F2F8EE49FF238857
S3150801E3A06128318860C86201330022019300920214
S3150801E3B023EAA1EA48FEF719F9EA4801F061FA41A8
S3150801E3C020000601681022914301602120400601C0
S3150801E3D0680201914301605D242406A06808252886
S3150801E3E043A06001212846FFF77AFF606828436049
S3150801E3F060A0680225A843A06000212846FFF76FA0
S3150801E400FF6068284360607CBD3EB5D24D0446284E
S3150801E41078012806D0002806D0A868002805D0016A
S3150801E4202009E0022007E0032005E0216860684032
S3150801E4301A4B280AD904200090C74869463430FD8A
S3150801E440F7EDFF2046FDF787FC3EBD204600F00F9D
S3150801E450FCAC603EBD08B5412109060868000740C5
S3150801E4600F0DD0BC48012202700968890507D557E6
S3150801E4702109060091B749006A4A68694690470822
S3150801E480BD172080060168C9070CD0006840070936
S3150801E490D502212D2040060160AF4801700021C137
S3150801E4A06001614170704770B5AB4800216430FD69
S3150801E4B0F734FC01210220FFF712FFA64C032020A6
S3150801E4C07020691438FF2800D9FF20E071A248009E
S3150801E4D0216430216102683225302355601360D2E8
S3150801E4E068D1540268E379D5681268AA185370018D
S3150801E4F0228280C280017241728172E170954D99C2
S3150801E5004AEB680221E069984741200006006880C5
S3150801E5100505D5944AEB6808320221206A984770A6
S3150801E520BDF8B504462120400600680F4625464039
S3150801E5300001262035002844DA2046FDF794FB0021
S3150801E5402F0BD0012F02D0022F07D103E0E068304C
S3150801E55043E06002E0E0693043E0616878602801E1
S3150801E560D2401C6870E0683E210840E1698906C905
S3150801E5700E03D100280AD03E2808D028780028089A
S3150801E580D0401E0006000E287003D004E00820289B
S3150801E5907001E0002068706D4D0020734B283581AD
S3150801E5A0000A1912691A4237D1625869584A401A3B
S3150801E5B04232D1401CC0B20428F1D32D20400606B0
S3150801E5C06015E02D20400600684007400F05282306
S3150801E5D0D100206870022F1ED020694000206101F9
S3150801E5E02901D130432061614AC103914201D10118
S3150801E5F020F8BD00055B21000D0901884208D05CA1
S3150801E60049884205D05C49884202D05B4988420361
S3150801E610D1FF20687000E020610020F8BD70B504C4
S3150801E620464120000600684A4E4B4D800503D571C8
S3150801E63069286A884700E0022020707169E86988BC
S3150801E6404770BDFEB51720800600680125C0074141
S3150801E6504F002815D0B8782D267606FF2812D03116
S3150801E6606889060CD1412212065168382340079958
S3150801E67043800E01435160FF20B87007203870FEB1
S3150801E680BD3D70FEBD01A8FFF7C9FF0090F86800FF
S3150801E6902807D0401EF86004D12F4800215830FDC4
S3150801E6A0F7BDFE2D2040060068400704D1386941B0
S3150801E6B01C01D0401C38617878002806D0386902D8
S3150801E6C02801D8042401E000207870224E284684C7
S3150801E6D036717835462035602903D2697960290073
S3150801E6E0D2002079788C46002913D1B96800294CC3
S3150801E6F0D000284AD139697A6A8B1C9A4208D2898C
S3150801E7001A891C0B0702D009090901103151187918
S3150801E710627C6A002C39D0002837D12D2149060898
S3150801E720684007400F042830D13869A41EA0422C3E
S3150801E730D1362008606046002821D0242038615D42
S3150801E7402000068168082291438160042032E09006
S3150801E7503E00003C4400005843000050485900550B
S3150801E76028000037020000787200003E3E3E3E0057
S3150801E7700058D8610B0000C2060000850D0000B8DC
S3150801E780680168491C01600020D8E7FF480099FF25
S3150801E790F7C7FE00280DD141200006006880050054
S3150801E7A0D46FE768460179F8482430FFF7B9FE00C7
S3150801E7B028F6D005203870002030707070287168EE
S3150801E7C071F249401E086148618861C861486388D9
S3150801E7D063C8630864FEBD70B50C46054609880022
S3150801E7E0F054FA6188A81C00F050FAA188281D0087
S3150801E7F0F04CFAE188A81D00F048FA70BDF0B5E2C0
S3150801E8004887B06438C078E1490091103901250577
S3150801E81091012802D0022812D10AE0DC49083908F8
S3150801E820461038FFF7D8FFD84900206439C8700662
S3150801E830E000990598FFF7CFFFD4486438C57006FC
S3150801E840A8FFF7ECFE2D21490609684907490F0576
S3150801E850295FD1CD4CA1884904090CA18001280260
S3150801E860D0022804D102E02943A18000E06572E1C3
S3150801E8708849040A0CE2806946097E012902D00208
S3150801E8802904D102E02A43E28000E0A57202284267
S3150801E890D1022940D1207A401CC0B22072A1880237
S3150801E8A02901D0032837D3B84900206439086104FF
S3150801E8B0E00A69521C40080A61A080A0880128F76D
S3150801E8C0D1206803C8081A032806D1AF486438C29C
S3150801E8D079016989182031016141200006006880A3
S3150801E8E00501D5059800E000200290A74806216495
S3150801E8F03801700021C160A54801A9183801902086
S3150801E900680390A1482438FDF789FD00210220FFFC
S3150801E910F7E6FC07B0F0BDA088C004FAD59C4A9C6E
S3150801E9204F9A4E083A0221643EFB68F069984701FE
S3150801E93020F070412000060068800507D5FB683580
S3150801E940460221009A286A98470220E870A08800A2
S3150801E950250005000DA08000090090607A2E46006A
S3150801E9602800D10125201DFEF71DFE00280AD00822
S3150801E970200543A0880005070E0098B84203D10474
S3150801E98020054300E0009F41200006006880051C21
S3150801E990D5E0880005000DE08000090090A07A0006
S3150801E9A02800D10126A01DFEF7FDFD00280BD00881
S3150801E9B0200643E08800990005000E049081420470
S3150801E9C0D10420064301E000980490AE4201D9041F
S3150801E9D09F3546082D05D220680123C16800680ABB
S3150801E9E05C06E0680706D420680223C16800680A45
S3150801E9F05C1A430A542068026841688B1A5A2B1B11
S3150801EA00D84B1CC26843605754206800F08DFB0040
S3150801EA102818D060484078002800D051E72168803E
S3150801EA2023C8680968425C1A434254206800F0FD0D
S3150801EA30FA56496439487043E7C0680423815C196A
S3150801EA4043815449E70120A080E0800020207260BC
S3150801EA5072A0725EE7FEB52D20400600685D23812F
S3150801EA60064A48412630380446343C890E1B0608B6
S3150801EA7027A27936060025002915D0202930D03855
S3150801EA80291FD1306810210843306001210220FF77
S3150801EA90F726FC217908294DD26078012700282814
S3150801EAA0D0002931D123E03168C9060AD43B49612E
S3150801EAB0611421217102212170002A03D0A5710454
S3150801EAC0202061FEBD996839439960E56061780047
S3150801EAD02901D06570FEBD69460095FDF79FFCFECC
S3150801EAE0BD002AFCD0996839439960E560F3E76768
S3150801EAF0713AE0A06800280BD04268016891420784
S3150801EB00D24A1CC3680260585C6179002902D00C9C
S3150801EB10E067710AE0616909036161FEF736FD6123
S3150801EB20690843606120790C302071207900281822
S3150801EB30D0082803D320790838207104E0606900D9
S3150801EB400160612571A77121796069C8400B21C0EF
S3150801EB50B2C906086031688905C1D559210906086F
S3150801EB6060FEBD60790028FBD031681020814331F1
S3150801EB706000210220FFF7B3FB657160780028EF7A
S3150801EB80D1A0680028ECD00AE00000BC4300009040
S3150801EB907200003C440000CC420000B0B00500FD04
S3150801EBA0F7DAF8A560FEBD3E483F490078800008BF
S3150801EBB05800473B49C860704770B504460D464042
S3150801EBC0888988884200D9A880608829888842006F
S3150801EBD0D228806188A81C00F058F8AD1D2088A9A4
S3150801EBE088884200D9A88020882988884200D228A6
S3150801EBF0802188A81C00F049F8AD1DE088A98888FD
S3150801EC004200D9A880E0882988884200D22880E174
S3150801EC1088A81C00F03AF8A1886A89A81D914200C3
S3150801EC20D98180A1880288914200D20180A1888079
S3150801EC301C00F02BF870BD10B51C491C48FFF7BC29
S3150801EC40FF412000060068800505D51749184818B0
S3150801EC50310830FFF7B1FF124CA068002801D00037
S3150801EC60F006F80220207010BD0E4988707047C161
S3150801EC70680068085C0B49012802D900012A30029C
S3150801EC80E0094A083A105C486270470288D3009A3C
S3150801EC901A511801224903D2038918090C018070F7
S3150801ECA047000058430000983E00000C43000078D6
S3150801ECB07200003EB504464448407800280ED0202C
S3150801ECC068E268411C2160105C012809D004210210
S3150801ECD020FDF72EFA2046FDF73EF83EBD0121F646
S3150801ECE0E769463A480094FDF799FB3EBD10B538E9
S3150801ECF0490220FDF7D6F910BD38B5044636480154
S3150801ED00686846FDF70AF8009901204A68CB6855F4
S3150801ED101C4D60985400994868CA68431C4B601496
S3150801ED205402200099FDF79FF90098FDF714F83869
S3150801ED30BDF8B5254D0E4660350746697C10681441
S3150801ED4046002901D0606004E0E1680A5CD206D277
S3150801ED500E0A54287C002813D0002E08D0206808F3
S3150801ED602208382060E1680818314600F092FD2033
S3150801ED7068082208382060E1680818394600F089D1
S3150801ED80FD20680221401E2060E2681154287C009B
S3150801ED902809D022222168E068002E425403D02196
S3150801EDA068E06862224254687C002805D02168E040
S3150801EDB0681023425C1A43425421460220FDF75348
S3150801EDC0F92046FCF7C8FFF8BD0000CC42000080D8
S3150801EDD0430000B1310000503E0000FEB50546FE75
S3150801EDE0F7DBFC0023DB43FB4CFC4A002D04D0D0A7
S3150801EDF06B401CD0630ED00EE0516B491C51630069
S3150801EE00D153632078042806D1916B491C9163027A
S3150801EE10D1936300E0D363FEF7B9FCEE4869461463
S3150801EE20300095FDF7FBFAED4E0025306800280203
S3150801EE30D0FCF791FF35602570FEBDF8B5E84F04A3
S3150801EE40463868C16800680D18FF200090787A81F5
S3150801EE500601D400200CE00007810F1ED0800F02A6
S3150801EE60281BD000F004FD072100F0EDFC891CC821
S3150801EE70B26168E2684B1C636050547E7A102006C2
S3150801EE80437E726068E368421C62601E54009831D2
S3150801EE90464140B446F00902D010E00120E8E728CF
S3150801EEA078BA7A40066D1C400E002A01D0802210DD
S3150801EEB0436268E668531C6360B0544140C84BE737
S3150801EEC0689A889646100A6268561C6660B854485D
S3150801EED0407246D1B26268E768561C6660B954DA70
S3150801EEE08841409646100A6268E768561C6660B80B
S3150801EEF05448407246D1B26268E768561C6660B9E2
S3150801EF00544140186805C8101A401E6246C0B2D25C
S3150801EF100917D06B461A78431E12091B0712011BE3
S3150801EF200F1A432B788F261B0132401A43AC4B52DA
S3150801EF30069B7A6D1C520EDB071B0E1A436B461A8B
S3150801EF407001E0421ED2B26368E6685F1C6760F230
S3150801EF50544A4007E02B7861686D1C4F1CE66867C8
S3150801EF606073545A400146401EC0B20029F2D1606E
S3150801EF7068E368411C61601A549948E368027A603B
S3150801EF8068411C61601A54F8BD7FB5924D29780312
S3150801EF90290ED004290CD0914CE17A002905D1E13A
S3150801EFA088002905D1A17A002902D0617A89060249
S3150801EFB0D4FFF713FF7FBD00216846FCF7AEFE00BC
S3150801EFC02818D0607ADF21084060720098FFF7356B
S3150801EFD0FF2068FCF7C0FE002121600098C2680086
S3150801EFE0681154032028700098019001A97D48FDF5
S3150801EFF0F715FA7FBD1320DBE710B57648037800CD
S3150801F000F08CFC05070704070807001520FFF7BC65
S3150801F010FF10BD72491520CA88002A03D1897A00D2
S3150801F0202900D00020FFF7D9FE10BDF8B5C2680146
S3150801F030684024535C234353540268C1688D18AB56
S3150801F040786A461370DA064CD5426889182039CC95
S3150801F0507F002C04D0614920310979A14241D100B0
S3150801F060216A461170ED1CD90929781CD00F02694D
S3150801F070786E460F43A9780A02E9780A4329793155
S3150801F080704E06760F2E71C90909016E463170CC8C
S3150801F090218C4669460978504D8E46C90613D469AE
S3150801F0A08891421ED121E06A782E791702AA78172B
S3150801F0B043EA78120232434E06760E6E71C9090981
S3150801F0C0016D462970E3E7002A0DD0002102E049C7
S3150801F0D01C102906D24E007619B6889642F7D11029
S3150801F0E02903D30020F8BD00218C46C66800682094
S3150801F0F025315C29433154394871460C3007814220
S3150801F1008189081A078900920F1143FB221140DAF7
S3150801F1100992001143F72211409A06D20FD2000430
S3150801F12073114341736046F8BD08B5C36801685A4F
S3150801F1305CD20732D14068421A581881786B461951
S3150801F14070032A06D00B2A28D3CB0626D58B07248B
S3150801F150D104E0CC2923D00C2921D01EE04B061C72
S3150801F160D4C9090CD0C1796B4619700907090F135F
S3150801F170460B3B994211D1FF21121F801C08E00C56
S3150801F1802A0BD3017A491CC9B2F1E70378401C5905
S3150801F19040521EFAD20078884201D0002008BD01EB
S3150801F1A02008BDF7B506465168106884B00D1A14D3
S3150801F1B046012D01D8104672E007490B781A460018
S3150801F1C0F0ACFB0504045E045E5C00E168085C00C3
S3150801F1D00609D501270BE004440000CC420000983B
S3150801F1E0720000804300002046FFF79EFF0746FE97
S3150801F1F0F7D3FA0022D2438749002F13D00B2D0FDC
S3150801F200D3886A401C886200D18A622368E068C094
S3150801F2105C80070CD5086B401C086308D10A630695
S3150801F220E0002704E0C86A401CC86200D1CA62FE31
S3150801F230F7ADFA002F32D02168E068405C4006023B
S3150801F240D42046FFF7F2FE2168E068405C80062577
S3150801F250D572490E60059848606068801E60604BEB
S3150801F2607B082022685B0700D5072010182060005C
S3150801F27091019469466A48FDF7D1F807B0F0BD03D4
S3150801F2802D07D3E1680B5CDB0703D108188078CC1E
S3150801F2902808D0022A08D01520FFF79FFD2046FC32
S3150801F2A0F75AFDEAE70020F7E71520FFF76DFEF5A7
S3150801F2B0E70EB55A4A203A1178012904D0032909DB
S3150801F2C0D0002010700EBD002802D0FFF75DFE0E9B
S3150801F2D0BD022005E0002802D0FFF77FFD0EBD0420
S3150801F2E0201070F820009069464E48FDF797F80EF1
S3150801F2F0BD1CB514210320FDF742F9484CFF232014
S3150801F3003C2146083160608860243188600022010A
S3150801F31033009201930246022343A14348FDF76550
S3150801F320F9404861682438414A41610261016240F5
S3150801F3304AC26181634049416300F063F8002020B5
S3150801F340701CBDF0B503460F461168506885B0407C
S3150801F3501A324DDCB269460C740C3D296816460012
S3150801F3602901D0112035E0811E402903D261070306
S3150801F370D5112801D914202CE0002103A8FCF7CDCA
S3150801F380FC002825D02E602348EF804088A88038C5
S3150801F3900C28726107A007C90F000FC9010843208D
S3150801F3A02108436872E006C00FA8722007C00FE85B
S3150801F3B0720398FFF742FD194901202039087003A5
S3150801F3C0980090174869462438FDF728F805B0F0E3
S3150801F3D0BD13200090124869460C38FDF71FF83016
S3150801F3E046FCF7B9FCF2E710B50B4840880028053A
S3150801F3F0D01249884202D000F043FA10BD00F0014C
S3150801F400F810BD10B52B204006816940690818001F
S3150801F410F037FA10BD0000CC420000A472000024A7
S3150801F420440000A44300004D414300ED080000AF2D
S3150801F430370000A1360000F7340000FFFF00003E48
S3150801F440B5044659484078002801D0012107E02231
S3150801F45068E068511C2160825C012A07D0042103F7
S3150801F46020FCF766FE2046FCF776FC3EBD415C00B3
S3150801F47091216840188178C2780902120440788976
S3150801F4801808180294019020686946001D206047F3
S3150801F49048FCF7C4FF3EBD10B546490320FCF701F9
S3150801F4A0FE10BD38B50446434801686846FCF73581
S3150801F4B0FC009901204A68CB68551C4D6098540098
S3150801F4C0994868CA68431C4B60145403200099FC88
S3150801F4D0F7CAFD0098FCF73FFC38BD70B5334E0CF2
S3150801F4E04660360546717C2068002901D060601F98
S3150801F4F0E0801F2060E268697B11542268E1682870
S3150801F500898918487028892268E168000A89188853
S3150801F510702268E16868898918C87068892268E173
S3150801F52068000A891808712268E168287B891848E1
S3150801F53071307C002814D06868002808D020680833
S3150801F5402208382060E1680818696800F0A2F920E5
S3150801F55068082208382060E1680818296800F099C7
S3150801F560F920680221401E2060E2681154307C00AF
S3150801F570280AD02168E068222242546868002803D4
S3150801F580D0E168206862220A54707C002805D021DF
S3150801F59068E0681023425C1A43425421460320FC62
S3150801F5A0F762FD2046FCF7D7FB70BDCC4200000C84
S3150801F5B04400003D390000503E000010B5044628BD
S3150801F5C020FCF7A7FF002807D0934920600A694263
S3150801F5D060086100210170012010BD10B50968811C
S3150801F5E0608969C181816849690022418314460C91
S3150801F5F02151430918CB890B828C74CC748C82CB2C
S3150801F60082521C0C76022AF2DB0221017344730131
S3150801F6102101700A20FCF7FFFD0A20FCF7E2FD0133
S3150801F6202010BD10B5002101707B48006903E00177
S3150801F63078002905D140680028F9D10A20FCF7D6B7
S3150801F640FD10BD007B7047022901D000207047815B
S3150801F6508A1180C18A5180018C9180408CD08001A9
S3150801F660207047F0B5048843880589C2889C4207FB
S3150801F670D351194A080121A24200D2417101713BB5
S3150801F680E06E00AE19B61C9619B7080026A7420007
S3150801F690D346710779002F2ED04779002F10D00154
S3150801F6A02155000904AB4202D35D005B1901E055FF
S3150801F6B0005219D21892035118090CC18086721A80
S3150801F6C0E0002915D1817A012908D9EF007D1BEDC2
S3150801F6D01801276D03FF03ED192D0C058120290754
S3150801F6E0D151005118891C591889088672491CC1BB
S3150801F6F080817A491C817206714480F0BDF0B5C1DA
S3150801F70089C28A914208D2418B428C914204D241E4
S3150801F7107B00291DD0491E1AE0002101250C224A29
S3150801F7204313189A8ADC8A0C26121954086A1A7223
S3150801F730431218968AD78ADB89F619B608A34208AE
S3150801F740D9D289B24205D2417B102901D2491C413D
S3150801F75073F0BD491C0229E1DBF0BDF0B5417B041C
S3150801F7602902D802210173F0BDC289C18A8A4203DE
S3150801F770D2438B448CA342F6D301258A4203D24352
S3150801F7808B448CA34212D2448B438C00269C4201A3
S3150801F790D28A4209D2078C521AFF1AE31A848A7A44
S3150801F7A043611A4B439A4201DD0673F0BD0573F0B6
S3150801F7B0BD70B5184800250126046928E02078009F
S3150801F7C02824D0412000060068C00700D00125A0E2
S3150801F7D0688169A940E18140693146A84060836032
S3150801F7E07B042800D8002120460E30FFF73AFF6037
S3150801F7F07B3146042800D8002120461A30FFF7310C
S3150801F800FF2046FFF77BFF2046FFF7A7FF64680046
S3150801F8102CD4D170BD00003C44000030B50B460124
S3150801F8204600202022012409E00D46D5409D4205C7
S3150801F830D31D469540491B25469540401915465204
S3150801F8401E002DF1DC30BD70B500242546002801C7
S3150801F850DA01244042002901DA01254942FFF7DD90
S3150801F860FFAC4200D04042002C00D0494270BD0591
S3150801F87049064A08685043054A80180860400870D6
S3150801F88047014908607047544400006D4EC6413926
S3150801F89030000003460B439B0703D009E008C91251
S3150801F8A01F08C0042AFAD203E00B78491C037040EA
S3150801F8B01C521EF9D27047D2B201E00270401C49AF
S3150801F8C01EFBD270470022F6E710B504460846111A
S3150801F8D04602462046FFF7EFFF204610BD10B50445
S3150801F8E04605E00B780370401C002B00D0491C52DA
S3150801F8F01EF7D2204610BD064C0125064E05E0200E
S3150801F90046E36807C82B4398471034B442F7D3FC3B
S3150801F910F748F9C83E0000D83E000030B474466482
S3150801F9201E2578641CAB4200D21D46635D5B00E36D
S3150801F9301830BC184702E008C8121F08C1002AFA85
S3150801F940D170477047002001E001C1121F002AFB50
S3150801F950D17047FFFFFFFF00000100020000080405
S3150801F9600000040002000108008000400020001089
S3150801F97000000000000050C800000000C20100009D
S3150801F980000000000100530C00000082000704017A
S3150801F990450000283A000000000056532900007F60
S3150801F9A0290000412B0000FB2C0000532F0000A565
S3150801F9B0290000353100007F290000FFFF00FF0004
S3150801F9C0000000FFFF00FF00000000584400005C33
S3150801F9D0440000582E0000423E000000020000CC00
S3150801F9E042000001000000DB1B00000000000000CF
S3150801F9F0040000CD42000001000000271C000000A1
S3150801FA0000000000100000CE42000002000000675E
S3150801FA101C00000000000001100000D04200000296
S3150801FA200010009D1B0000871B000002100000F05B
S3150801FA304200000100000000000000000000000074
S3150801FA403100000000000004000000A71C0000C1EE
S3150801FA501C000001310000F442000004000000EF20
S3150801FA601C0000051D000002310000F842000004D8
S3150801FA70000000271D00003D1D000003310000FCA9
S3150801FA80420000040000005F1D0000751D0000040F
S3150801FA903100000000000004000000971D0000B1BD
S3150801FAA01D0000053100000043000004000000DFCE
S3150801FAB01D0000F51D000006310000044300000486
S3150801FAC0000000171E00002D1E0000073100000867
S3150801FAD0430000040000004F1E0000651E000000E0
S3150801FAE03201000C4300000600040000000000AFCC
S3150801FAF01B00000132010024430000060004000037
S3150801FB00000000C51B0000003300003C4300000153
S3150801FB100000001323000000000000003400003D2F
S3150801FB204300000100000027230000000000000038
S3150801FB304101000000000002000000000000000072
S3150801FB4000000001410000000000000100000087DC
S3150801FB501E0000F91E00000241000000000000011D
S3150801FB600000000D1F0000431F00000441000000B3
S3150801FB7000000001000000F9210000E9210000054C
S3150801FB804100000000000001000000571F00008D21
S3150801FB901F0000064100000000000001000000A14E
S3150801FBA01F0000BF1F0000094100000000000001FE
S3150801FBB00000002B220000632200000A4100000019
S3150801FBC00000000100000077220000AF22000001BA
S3150801FBD04200000000000001000000C3220000FFEF
S3150801FBE02200000454010004000054020000000031
S3150801FBF0000000000000000554010000000000019B
S3150801FC00000000000000000F21000006540000005B
S3150801FC100000000100000023210000432100000725
S3150801FC205400000000000001000000572100008B6D
S3150801FC302100000854000000000000010000009F98
S3150801FC40210000C12100000055000000000000024B
S3150801FC50000000E9200000FB200000085800000011
S3150801FC60000000020000003D200000992000000C61
S3150801FC7058000000000000020000004F200000ADFF
S3150801FC802000000859000000000000020000006181
S3150801FC90200000C12000000C5900000000000002ED
S3150801FCA000000073200000D520000014580000143D
S3150801FCB000005801000000000000000000000015C7
S3150801FCC05800000000000001000000CD1F0000EDF3
S3150801FCD01F00001658000000000000010000000186
S3150801FCE020000085200000005B00000000005B0189
S3150801FCF00000000000000000000000005C01000098
S3150801FD000000000100000000000000D521000000ED
S3150801FD10600100883E0000060000000000000000A7
S3150801FD2000000000000000000000000000000000C4
S3150801FD3000000000000000000000000000000000B4
S3150801FD4000000000000000000000000000000000A4
S3150801FD500000000000000000000000000000000094
S3150801FD600000000000000000000000000000000084
S3150801FD7000000000000000FFFFFFFF000000000078
S3150801FD80000000AAAAAAAA00000000251800004F30
S3150801FD90180000FD18000000000000000000000027
S3150801FDA00000000F19000025190000000000000DD1
S3150801FDB01A00002D1A00005D1A000000000000005C
S3150801FDC0000000731A000000000000000000000196
S3150801FDD00000000000000000000000000000000014
S3150801FDE00000000000000000000000000000000004
S3150801FDF000000000000000000000000000000000F4
S3150801FE00000000000000000000000000000000FFE4
S3150801FE10FF00000000FFFF00000000FFFF000000D8
S3150801FE2000FFFF00000000FFFF00000000FFFF00C9
S3150801FE30000000FFFF00000000FFFF0000000000B7
S3150801FE40000000000000000000000000000000FFA4
S3150801FE50FF000000000000000000000000FF001481
S3150801FE60000000000000000000000000000000B0D3
S3150801FE70B0050000000000000000000000000000BE
S3150801FE80000000030000000729000000000000032D
S3150801FE90000000000000000000000005000000004E
S3150801FEA00000000000000003000000B1300000005F
S3150801FEB00000000200000000000000000000000031
S3150801FEC0000000000000000000000000000000FF24
S3150801FED0FFFFFFFFFFFFFFFFFFFFFFFFFFFFFF0022
S3150801FEE00000000000000000000000000000000003
S3150801FEF0000000FFFFFFFFFFFFFFFFFFFFFFFFFF00
S3150801FF00FFFFFF00000000000000000000000005E0
S3150801FF100000004138000000000000030000000056
S3150801FF2000000000000000050000000000000000BD
S3150801FF3000000002000000E538000000000000B9DA
S3150801FF403A0000D93A0000213B0000453B00000079
S3150801FF50000000413B0000000000004067840000EB
S70508005B6D2A
